{
    "_format": "hh-sol-artifact-1",
    "contractName": "ControllerContract",
    "sourceName": "contracts/ControlData.sol",
    "abi": [
        {
            "inputs": [
                {
                    "components": [
                        {
                            "internalType": "string",
                            "name": "deviceName",
                            "type": "string"
                        },
                        {
                            "internalType": "string",
                            "name": "createAt",
                            "type": "string"
                        },
                        {
                            "internalType": "uint256",
                            "name": "value",
                            "type": "uint256"
                        }
                    ],
                    "internalType": "struct ControllerContract.ControllerInfo[]",
                    "name": "_controllersInfo",
                    "type": "tuple[]"
                }
            ],
            "name": "addControllerInfo",
            "outputs": [],
            "stateMutability": "nonpayable",
            "type": "function"
        },
        {
            "inputs": [],
            "name": "getAllControllersInfo",
            "outputs": [
                {
                    "components": [
                        {
                            "internalType": "string",
                            "name": "deviceName",
                            "type": "string"
                        },
                        {
                            "internalType": "string",
                            "name": "createAt",
                            "type": "string"
                        },
                        {
                            "internalType": "uint256",
                            "name": "value",
                            "type": "uint256"
                        }
                    ],
                    "internalType": "struct ControllerContract.ControllerInfo[]",
                    "name": "",
                    "type": "tuple[]"
                }
            ],
            "stateMutability": "view",
            "type": "function"
        },
        {
            "inputs": [],
            "name": "getNumberOfControllersInfo",
            "outputs": [
                {
                    "internalType": "uint256",
                    "name": "",
                    "type": "uint256"
                }
            ],
            "stateMutability": "view",
            "type": "function"
        }
    ],
    "bytecode": "0x608060405234801561001057600080fd5b50610ca0806100206000396000f3fe608060405234801561001057600080fd5b50600436106100415760003560e01c80630550107e14610046578063b2c5278b14610062578063bbb9f29814610080575b600080fd5b610060600480360381019061005b9190610676565b61009e565b005b61006a610142565b60405161007791906106ce565b60405180910390f35b61008861014c565b6040516100959190610890565b60405180910390f35b60005b815181101561013e578181815181106100bd576100bc6108b2565b5b6020026020010151600080600154815260200190815260200160002060008201518160000190816100ee9190610aed565b5060208201518160010190816101049190610aed565b506040820151816002015590505060018060008282546101249190610bee565b92505081905550808061013690610c22565b9150506100a1565b5050565b6000600154905090565b6060600060015467ffffffffffffffff81111561016c5761016b610384565b5b6040519080825280602002602001820160405280156101a557816020015b610192610339565b81526020019060019003908161018a5790505b50905060005b600154811015610331576000808281526020019081526020016000206040518060600160405290816000820180546101e290610910565b80601f016020809104026020016040519081016040528092919081815260200182805461020e90610910565b801561025b5780601f106102305761010080835404028352916020019161025b565b820191906000526020600020905b81548152906001019060200180831161023e57829003601f168201915b5050505050815260200160018201805461027490610910565b80601f01602080910402602001604051908101604052809291908181526020018280546102a090610910565b80156102ed5780601f106102c2576101008083540402835291602001916102ed565b820191906000526020600020905b8154815290600101906020018083116102d057829003601f168201915b50505050508152602001600282015481525050828281518110610313576103126108b2565b5b6020026020010181905250808061032990610c22565b9150506101ab565b508091505090565b60405180606001604052806060815260200160608152602001600081525090565b6000604051905090565b600080fd5b600080fd5b600080fd5b6000601f19601f8301169050919050565b7f4e487b7100000000000000000000000000000000000000000000000000000000600052604160045260246000fd5b6103bc82610373565b810181811067ffffffffffffffff821117156103db576103da610384565b5b80604052505050565b60006103ee61035a565b90506103fa82826103b3565b919050565b600067ffffffffffffffff82111561041a57610419610384565b5b602082029050602081019050919050565b600080fd5b600080fd5b600080fd5b600080fd5b600067ffffffffffffffff82111561045a57610459610384565b5b61046382610373565b9050602081019050919050565b82818337600083830152505050565b600061049261048d8461043f565b6103e4565b9050828152602081018484840111156104ae576104ad61043a565b5b6104b9848285610470565b509392505050565b600082601f8301126104d6576104d561036e565b5b81356104e684826020860161047f565b91505092915050565b6000819050919050565b610502816104ef565b811461050d57600080fd5b50565b60008135905061051f816104f9565b92915050565b60006060828403121561053b5761053a610430565b5b61054560606103e4565b9050600082013567ffffffffffffffff81111561056557610564610435565b5b610571848285016104c1565b600083015250602082013567ffffffffffffffff81111561059557610594610435565b5b6105a1848285016104c1565b60208301525060406105b584828501610510565b60408301525092915050565b60006105d46105cf846103ff565b6103e4565b905080838252602082019050602084028301858111156105f7576105f661042b565b5b835b8181101561063e57803567ffffffffffffffff81111561061c5761061b61036e565b5b8086016106298982610525565b855260208501945050506020810190506105f9565b5050509392505050565b600082601f83011261065d5761065c61036e565b5b813561066d8482602086016105c1565b91505092915050565b60006020828403121561068c5761068b610364565b5b600082013567ffffffffffffffff8111156106aa576106a9610369565b5b6106b684828501610648565b91505092915050565b6106c8816104ef565b82525050565b60006020820190506106e360008301846106bf565b92915050565b600081519050919050565b600082825260208201905092915050565b6000819050602082019050919050565b600081519050919050565b600082825260208201905092915050565b60005b8381101561074f578082015181840152602081019050610734565b60008484015250505050565b600061076682610715565b6107708185610720565b9350610780818560208601610731565b61078981610373565b840191505092915050565b61079d816104ef565b82525050565b600060608301600083015184820360008601526107c0828261075b565b915050602083015184820360208601526107da828261075b565b91505060408301516107ef6040860182610794565b508091505092915050565b600061080683836107a3565b905092915050565b6000602082019050919050565b6000610826826106e9565b61083081856106f4565b93508360208202850161084285610705565b8060005b8581101561087e578484038952815161085f85826107fa565b945061086a8361080e565b925060208a01995050600181019050610846565b50829750879550505050505092915050565b600060208201905081810360008301526108aa818461081b565b905092915050565b7f4e487b7100000000000000000000000000000000000000000000000000000000600052603260045260246000fd5b7f4e487b7100000000000000000000000000000000000000000000000000000000600052602260045260246000fd5b6000600282049050600182168061092857607f821691505b60208210810361093b5761093a6108e1565b5b50919050565b60008190508160005260206000209050919050565b60006020601f8301049050919050565b600082821b905092915050565b6000600883026109a37fffffffffffffffffffffffffffffffffffffffffffffffffffffffffffffffff82610966565b6109ad8683610966565b95508019841693508086168417925050509392505050565b6000819050919050565b60006109ea6109e56109e0846104ef565b6109c5565b6104ef565b9050919050565b6000819050919050565b610a04836109cf565b610a18610a10826109f1565b848454610973565b825550505050565b600090565b610a2d610a20565b610a388184846109fb565b505050565b5b81811015610a5c57610a51600082610a25565b600181019050610a3e565b5050565b601f821115610aa157610a7281610941565b610a7b84610956565b81016020851015610a8a578190505b610a9e610a9685610956565b830182610a3d565b50505b505050565b600082821c905092915050565b6000610ac460001984600802610aa6565b1980831691505092915050565b6000610add8383610ab3565b9150826002028217905092915050565b610af682610715565b67ffffffffffffffff811115610b0f57610b0e610384565b5b610b198254610910565b610b24828285610a60565b600060209050601f831160018114610b575760008415610b45578287015190505b610b4f8582610ad1565b865550610bb7565b601f198416610b6586610941565b60005b82811015610b8d57848901518255600182019150602085019450602081019050610b68565b86831015610baa5784890151610ba6601f891682610ab3565b8355505b6001600288020188555050505b505050505050565b7f4e487b7100000000000000000000000000000000000000000000000000000000600052601160045260246000fd5b6000610bf9826104ef565b9150610c04836104ef565b9250828201905080821115610c1c57610c1b610bbf565b5b92915050565b6000610c2d826104ef565b91507fffffffffffffffffffffffffffffffffffffffffffffffffffffffffffffffff8203610c5f57610c5e610bbf565b5b60018201905091905056fea26469706673582212201eee8323a34864c0d2edbafeb9a6b215a5bbb1c5f8a66fc31eb7c3b1f2bd0e3964736f6c63430008130033",
    "linkReferences": {},
    "deployedLinkReferences": {}
}