{
  "_format": "hh-sol-artifact-1",
  "contractName": "CropInfo",
  "sourceName": "contracts/CropInfo.sol",
  "abi": [
    {
      "inputs": [
        {
          "internalType": "string",
          "name": "_cropType",
          "type": "string"
        },
        {
          "internalType": "uint256",
          "name": "_plantingDate",
          "type": "uint256"
        },
        {
          "internalType": "uint256",
          "name": "_monthsToHavest",
          "type": "uint256"
        },
        {
          "internalType": "string[]",
          "name": "_fertilizers",
          "type": "string[]"
        },
        {
          "internalType": "string[]",
          "name": "_pesticides",
          "type": "string[]"
        },
        {
          "internalType": "string[]",
          "name": "_diseases",
          "type": "string[]"
        },
        {
          "internalType": "string",
          "name": "additionalInfo",
          "type": "string"
        }
      ],
      "name": "addCropInfo",
      "outputs": [],
      "stateMutability": "nonpayable",
      "type": "function"
    },
    {
      "inputs": [],
      "name": "cropCount",
      "outputs": [
        {
          "internalType": "uint256",
          "name": "",
          "type": "uint256"
        }
      ],
      "stateMutability": "view",
      "type": "function"
    },
    {
      "inputs": [
        {
          "internalType": "uint256",
          "name": "",
          "type": "uint256"
        }
      ],
      "name": "crops",
      "outputs": [
        {
          "internalType": "uint256",
          "name": "cropId",
          "type": "uint256"
        },
        {
          "internalType": "string",
          "name": "cropType",
          "type": "string"
        },
        {
          "internalType": "uint256",
          "name": "plantingDate",
          "type": "uint256"
        },
        {
          "internalType": "uint256",
          "name": "monthsToHavest",
          "type": "uint256"
        },
        {
          "internalType": "string",
          "name": "additionalInfo",
          "type": "string"
        }
      ],
      "stateMutability": "view",
      "type": "function"
    },
    {
      "inputs": [],
      "name": "getAllCropsInfo",
      "outputs": [
        {
          "components": [
            {
              "internalType": "uint256",
              "name": "cropId",
              "type": "uint256"
            },
            {
              "internalType": "string",
              "name": "cropType",
              "type": "string"
            },
            {
              "internalType": "uint256",
              "name": "plantingDate",
              "type": "uint256"
            },
            {
              "internalType": "uint256",
              "name": "monthsToHavest",
              "type": "uint256"
            },
            {
              "internalType": "string[]",
              "name": "fertilizers",
              "type": "string[]"
            },
            {
              "internalType": "string[]",
              "name": "pesticides",
              "type": "string[]"
            },
            {
              "internalType": "string[]",
              "name": "diseases",
              "type": "string[]"
            },
            {
              "internalType": "string",
              "name": "additionalInfo",
              "type": "string"
            }
          ],
          "internalType": "struct CropInfo.Crop[]",
          "name": "",
          "type": "tuple[]"
        }
      ],
      "stateMutability": "view",
      "type": "function"
    },
    {
      "inputs": [
        {
          "internalType": "uint256",
          "name": "_cropId",
          "type": "uint256"
        }
      ],
      "name": "getCropInfo",
      "outputs": [
        {
          "components": [
            {
              "internalType": "uint256",
              "name": "cropId",
              "type": "uint256"
            },
            {
              "internalType": "string",
              "name": "cropType",
              "type": "string"
            },
            {
              "internalType": "uint256",
              "name": "plantingDate",
              "type": "uint256"
            },
            {
              "internalType": "uint256",
              "name": "monthsToHavest",
              "type": "uint256"
            },
            {
              "internalType": "string[]",
              "name": "fertilizers",
              "type": "string[]"
            },
            {
              "internalType": "string[]",
              "name": "pesticides",
              "type": "string[]"
            },
            {
              "internalType": "string[]",
              "name": "diseases",
              "type": "string[]"
            },
            {
              "internalType": "string",
              "name": "additionalInfo",
              "type": "string"
            }
          ],
          "internalType": "struct CropInfo.Crop",
          "name": "",
          "type": "tuple"
        }
      ],
      "stateMutability": "view",
      "type": "function"
    },
    {
      "inputs": [],
      "name": "getNumberOfCrop",
      "outputs": [
        {
          "internalType": "uint256",
          "name": "",
          "type": "uint256"
        }
      ],
      "stateMutability": "view",
      "type": "function"
    },
    {
      "inputs": [
        {
          "internalType": "uint256",
          "name": "_cropId",
          "type": "uint256"
        },
        {
          "internalType": "string",
          "name": "_cropType",
          "type": "string"
        },
        {
          "internalType": "uint256",
          "name": "_plantingDate",
          "type": "uint256"
        },
        {
          "internalType": "uint256",
          "name": "_monthsToHavest",
          "type": "uint256"
        },
        {
          "internalType": "string[]",
          "name": "_fertilizers",
          "type": "string[]"
        },
        {
          "internalType": "string[]",
          "name": "_pesticides",
          "type": "string[]"
        },
        {
          "internalType": "string[]",
          "name": "_diseases",
          "type": "string[]"
        },
        {
          "internalType": "string",
          "name": "additionalInfo",
          "type": "string"
        }
      ],
      "name": "updateCropInfo",
      "outputs": [],
      "stateMutability": "nonpayable",
      "type": "function"
    }
  ],
  "bytecode": "0x608060405234801561001057600080fd5b50611c61806100206000396000f3fe608060405234801561001057600080fd5b506004361061007d5760003560e01c80636017805a1161005b5780636017805a146100ee57806370c9f1a51461010a5780638b964b4b1461013e578063dfd55a2c1461015a5761007d565b8063111479fb146100825780631f582b59146100a05780632896fa16146100be575b600080fd5b61008a610178565b6040516100979190610eb6565b60405180910390f35b6100a8610182565b6040516100b591906111c0565b60405180910390f35b6100d860048036038101906100d39190611222565b610629565b6040516100e5919061131b565b60405180910390f35b61010860048036038101906101039190611558565b610a23565b005b610124600480360381019061011f9190611222565b610b38565b6040516101359594939291906116d0565b60405180910390f35b61015860048036038101906101539190611731565b610c7e565b005b610162610d78565b60405161016f9190610eb6565b60405180910390f35b6000600154905090565b6060600060015467ffffffffffffffff8111156101a2576101a1611347565b5b6040519080825280602002602001820160405280156101db57816020015b6101c8610d7e565b8152602001906001900390816101c05790505b509050600080600190505b6001548111610620576000806000838152602001908152602001600020905080604051806101000160405290816000820154815260200160018201805461022c906118a2565b80601f0160208091040260200160405190810160405280929190818152602001828054610258906118a2565b80156102a55780601f1061027a576101008083540402835291602001916102a5565b820191906000526020600020905b81548152906001019060200180831161028857829003601f168201915b50505050508152602001600282015481526020016003820154815260200160048201805480602002602001604051908101604052809291908181526020016000905b82821015610393578382906000526020600020018054610306906118a2565b80601f0160208091040260200160405190810160405280929190818152602001828054610332906118a2565b801561037f5780601f106103545761010080835404028352916020019161037f565b820191906000526020600020905b81548152906001019060200180831161036257829003601f168201915b5050505050815260200190600101906102e7565b50505050815260200160058201805480602002602001604051908101604052809291908181526020016000905b8282101561046c5783829060005260206000200180546103df906118a2565b80601f016020809104026020016040519081016040528092919081815260200182805461040b906118a2565b80156104585780601f1061042d57610100808354040283529160200191610458565b820191906000526020600020905b81548152906001019060200180831161043b57829003601f168201915b5050505050815260200190600101906103c0565b50505050815260200160068201805480602002602001604051908101604052809291908181526020016000905b828210156105455783829060005260206000200180546104b8906118a2565b80601f01602080910402602001604051908101604052809291908181526020018280546104e4906118a2565b80156105315780601f1061050657610100808354040283529160200191610531565b820191906000526020600020905b81548152906001019060200180831161051457829003601f168201915b505050505081526020019060010190610499565b50505050815260200160078201805461055d906118a2565b80601f0160208091040260200160405190810160405280929190818152602001828054610589906118a2565b80156105d65780601f106105ab576101008083540402835291602001916105d6565b820191906000526020600020905b8154815290600101906020018083116105b957829003601f168201915b5050505050815250508484815181106105f2576105f16118d3565b5b602002602001018190525060018361060a9190611931565b925050808061061890611965565b9150506101e6565b50819250505090565b610631610d7e565b6000808381526020019081526020016000206040518061010001604052908160008201548152602001600182018054610669906118a2565b80601f0160208091040260200160405190810160405280929190818152602001828054610695906118a2565b80156106e25780601f106106b7576101008083540402835291602001916106e2565b820191906000526020600020905b8154815290600101906020018083116106c557829003601f168201915b50505050508152602001600282015481526020016003820154815260200160048201805480602002602001604051908101604052809291908181526020016000905b828210156107d0578382906000526020600020018054610743906118a2565b80601f016020809104026020016040519081016040528092919081815260200182805461076f906118a2565b80156107bc5780601f10610791576101008083540402835291602001916107bc565b820191906000526020600020905b81548152906001019060200180831161079f57829003601f168201915b505050505081526020019060010190610724565b50505050815260200160058201805480602002602001604051908101604052809291908181526020016000905b828210156108a957838290600052602060002001805461081c906118a2565b80601f0160208091040260200160405190810160405280929190818152602001828054610848906118a2565b80156108955780601f1061086a57610100808354040283529160200191610895565b820191906000526020600020905b81548152906001019060200180831161087857829003601f168201915b5050505050815260200190600101906107fd565b50505050815260200160068201805480602002602001604051908101604052809291908181526020016000905b828210156109825783829060005260206000200180546108f5906118a2565b80601f0160208091040260200160405190810160405280929190818152602001828054610921906118a2565b801561096e5780601f106109435761010080835404028352916020019161096e565b820191906000526020600020905b81548152906001019060200180831161095157829003601f168201915b5050505050815260200190600101906108d6565b50505050815260200160078201805461099a906118a2565b80601f01602080910402602001604051908101604052809291908181526020018280546109c6906118a2565b8015610a135780601f106109e857610100808354040283529160200191610a13565b820191906000526020600020905b8154815290600101906020018083116109f657829003601f168201915b5050505050815250509050919050565b60016000815480929190610a3690611965565b91905055506040518061010001604052806001548152602001888152602001878152602001868152602001858152602001848152602001838152602001828152506000806001548152602001908152602001600020600082015181600001556020820151816001019081610aaa9190611b59565b5060408201518160020155606082015181600301556080820151816004019080519060200190610adb929190610dc3565b5060a0820151816005019080519060200190610af8929190610dc3565b5060c0820151816006019080519060200190610b15929190610dc3565b5060e0820151816007019081610b2b9190611b59565b5090505050505050505050565b6000602052806000526040600020600091509050806000015490806001018054610b61906118a2565b80601f0160208091040260200160405190810160405280929190818152602001828054610b8d906118a2565b8015610bda5780601f10610baf57610100808354040283529160200191610bda565b820191906000526020600020905b815481529060010190602001808311610bbd57829003601f168201915b505050505090806002015490806003015490806007018054610bfb906118a2565b80601f0160208091040260200160405190810160405280929190818152602001828054610c27906118a2565b8015610c745780601f10610c4957610100808354040283529160200191610c74565b820191906000526020600020905b815481529060010190602001808311610c5757829003601f168201915b5050505050905085565b604051806101000160405280898152602001888152602001878152602001868152602001858152602001848152602001838152602001828152506000808a8152602001908152602001600020600082015181600001556020820151816001019081610ce99190611b59565b5060408201518160020155606082015181600301556080820151816004019080519060200190610d1a929190610dc3565b5060a0820151816005019080519060200190610d37929190610dc3565b5060c0820151816006019080519060200190610d54929190610dc3565b5060e0820151816007019081610d6a9190611b59565b509050505050505050505050565b60015481565b60405180610100016040528060008152602001606081526020016000815260200160008152602001606081526020016060815260200160608152602001606081525090565b828054828255906000526020600020908101928215610e0b579160200282015b82811115610e0a578251829081610dfa9190611b59565b5091602001919060010190610de3565b5b509050610e189190610e1c565b5090565b5b80821115610e3c5760008181610e339190610e40565b50600101610e1d565b5090565b508054610e4c906118a2565b6000825580601f10610e5e5750610e7d565b601f016020900490600052602060002090810190610e7c9190610e80565b5b50565b5b80821115610e99576000816000905550600101610e81565b5090565b6000819050919050565b610eb081610e9d565b82525050565b6000602082019050610ecb6000830184610ea7565b92915050565b600081519050919050565b600082825260208201905092915050565b6000819050602082019050919050565b610f0681610e9d565b82525050565b600081519050919050565b600082825260208201905092915050565b60005b83811015610f46578082015181840152602081019050610f2b565b60008484015250505050565b6000601f19601f8301169050919050565b6000610f6e82610f0c565b610f788185610f17565b9350610f88818560208601610f28565b610f9181610f52565b840191505092915050565b600081519050919050565b600082825260208201905092915050565b6000819050602082019050919050565b6000610fd48383610f63565b905092915050565b6000602082019050919050565b6000610ff482610f9c565b610ffe8185610fa7565b93508360208202850161101085610fb8565b8060005b8581101561104c578484038952815161102d8582610fc8565b945061103883610fdc565b925060208a01995050600181019050611014565b50829750879550505050505092915050565b6000610100830160008301516110776000860182610efd565b506020830151848203602086015261108f8282610f63565b91505060408301516110a46040860182610efd565b5060608301516110b76060860182610efd565b50608083015184820360808601526110cf8282610fe9565b91505060a083015184820360a08601526110e98282610fe9565b91505060c083015184820360c08601526111038282610fe9565b91505060e083015184820360e086015261111d8282610f63565b9150508091505092915050565b6000611136838361105e565b905092915050565b6000602082019050919050565b600061115682610ed1565b6111608185610edc565b93508360208202850161117285610eed565b8060005b858110156111ae578484038952815161118f858261112a565b945061119a8361113e565b925060208a01995050600181019050611176565b50829750879550505050505092915050565b600060208201905081810360008301526111da818461114b565b905092915050565b6000604051905090565b600080fd5b600080fd5b6111ff81610e9d565b811461120a57600080fd5b50565b60008135905061121c816111f6565b92915050565b600060208284031215611238576112376111ec565b5b60006112468482850161120d565b91505092915050565b6000610100830160008301516112686000860182610efd565b50602083015184820360208601526112808282610f63565b91505060408301516112956040860182610efd565b5060608301516112a86060860182610efd565b50608083015184820360808601526112c08282610fe9565b91505060a083015184820360a08601526112da8282610fe9565b91505060c083015184820360c08601526112f48282610fe9565b91505060e083015184820360e086015261130e8282610f63565b9150508091505092915050565b60006020820190508181036000830152611335818461124f565b905092915050565b600080fd5b600080fd5b7f4e487b7100000000000000000000000000000000000000000000000000000000600052604160045260246000fd5b61137f82610f52565b810181811067ffffffffffffffff8211171561139e5761139d611347565b5b80604052505050565b60006113b16111e2565b90506113bd8282611376565b919050565b600067ffffffffffffffff8211156113dd576113dc611347565b5b6113e682610f52565b9050602081019050919050565b82818337600083830152505050565b6000611415611410846113c2565b6113a7565b90508281526020810184848401111561143157611430611342565b5b61143c8482856113f3565b509392505050565b600082601f8301126114595761145861133d565b5b8135611469848260208601611402565b91505092915050565b600067ffffffffffffffff82111561148d5761148c611347565b5b602082029050602081019050919050565b600080fd5b60006114b66114b184611472565b6113a7565b905080838252602082019050602084028301858111156114d9576114d861149e565b5b835b8181101561152057803567ffffffffffffffff8111156114fe576114fd61133d565b5b80860161150b8982611444565b855260208501945050506020810190506114db565b5050509392505050565b600082601f83011261153f5761153e61133d565b5b813561154f8482602086016114a3565b91505092915050565b600080600080600080600060e0888a031215611577576115766111ec565b5b600088013567ffffffffffffffff811115611595576115946111f1565b5b6115a18a828b01611444565b97505060206115b28a828b0161120d565b96505060406115c38a828b0161120d565b955050606088013567ffffffffffffffff8111156115e4576115e36111f1565b5b6115f08a828b0161152a565b945050608088013567ffffffffffffffff811115611611576116106111f1565b5b61161d8a828b0161152a565b93505060a088013567ffffffffffffffff81111561163e5761163d6111f1565b5b61164a8a828b0161152a565b92505060c088013567ffffffffffffffff81111561166b5761166a6111f1565b5b6116778a828b01611444565b91505092959891949750929550565b600082825260208201905092915050565b60006116a282610f0c565b6116ac8185611686565b93506116bc818560208601610f28565b6116c581610f52565b840191505092915050565b600060a0820190506116e56000830188610ea7565b81810360208301526116f78187611697565b90506117066040830186610ea7565b6117136060830185610ea7565b81810360808301526117258184611697565b90509695505050505050565b600080600080600080600080610100898b031215611752576117516111ec565b5b60006117608b828c0161120d565b985050602089013567ffffffffffffffff811115611781576117806111f1565b5b61178d8b828c01611444565b975050604061179e8b828c0161120d565b96505060606117af8b828c0161120d565b955050608089013567ffffffffffffffff8111156117d0576117cf6111f1565b5b6117dc8b828c0161152a565b94505060a089013567ffffffffffffffff8111156117fd576117fc6111f1565b5b6118098b828c0161152a565b93505060c089013567ffffffffffffffff81111561182a576118296111f1565b5b6118368b828c0161152a565b92505060e089013567ffffffffffffffff811115611857576118566111f1565b5b6118638b828c01611444565b9150509295985092959890939650565b7f4e487b7100000000000000000000000000000000000000000000000000000000600052602260045260246000fd5b600060028204905060018216806118ba57607f821691505b6020821081036118cd576118cc611873565b5b50919050565b7f4e487b7100000000000000000000000000000000000000000000000000000000600052603260045260246000fd5b7f4e487b7100000000000000000000000000000000000000000000000000000000600052601160045260246000fd5b600061193c82610e9d565b915061194783610e9d565b925082820190508082111561195f5761195e611902565b5b92915050565b600061197082610e9d565b91507fffffffffffffffffffffffffffffffffffffffffffffffffffffffffffffffff82036119a2576119a1611902565b5b600182019050919050565b60008190508160005260206000209050919050565b60006020601f8301049050919050565b600082821b905092915050565b600060088302611a0f7fffffffffffffffffffffffffffffffffffffffffffffffffffffffffffffffff826119d2565b611a1986836119d2565b95508019841693508086168417925050509392505050565b6000819050919050565b6000611a56611a51611a4c84610e9d565b611a31565b610e9d565b9050919050565b6000819050919050565b611a7083611a3b565b611a84611a7c82611a5d565b8484546119df565b825550505050565b600090565b611a99611a8c565b611aa4818484611a67565b505050565b5b81811015611ac857611abd600082611a91565b600181019050611aaa565b5050565b601f821115611b0d57611ade816119ad565b611ae7846119c2565b81016020851015611af6578190505b611b0a611b02856119c2565b830182611aa9565b50505b505050565b600082821c905092915050565b6000611b3060001984600802611b12565b1980831691505092915050565b6000611b498383611b1f565b9150826002028217905092915050565b611b6282610f0c565b67ffffffffffffffff811115611b7b57611b7a611347565b5b611b8582546118a2565b611b90828285611acc565b600060209050601f831160018114611bc35760008415611bb1578287015190505b611bbb8582611b3d565b865550611c23565b601f198416611bd1866119ad565b60005b82811015611bf957848901518255600182019150602085019450602081019050611bd4565b86831015611c165784890151611c12601f891682611b1f565b8355505b6001600288020188555050505b50505050505056fea264697066735822122075ff453852caec70de04b02fc3eaaad83c2641e0b5bf54d910a8b2611fc3168a64736f6c63430008130033",
  "linkReferences": {},
  "deployedLinkReferences": {}
}