{
  "_format": "hh-sol-artifact-1",
  "contractName": "CropInfo",
  "sourceName": "contracts/CropInfo.sol",
  "abi": [
    {
      "inputs": [
        {
          "internalType": "string",
          "name": "_cropType",
          "type": "string"
        },
        {
          "internalType": "uint256",
          "name": "_plantingDate",
          "type": "uint256"
        },
        {
          "internalType": "uint256",
          "name": "_monthsToHavest",
          "type": "uint256"
        },
        {
          "internalType": "string[]",
          "name": "_fertilizers",
          "type": "string[]"
        },
        {
          "internalType": "string[]",
          "name": "_pesticides",
          "type": "string[]"
        },
        {
          "internalType": "string[]",
          "name": "_diseases",
          "type": "string[]"
        },
        {
          "internalType": "string",
          "name": "additionalInfo",
          "type": "string"
        },
        {
          "internalType": "uint256",
          "name": "_noOfCrops",
          "type": "uint256"
        }
      ],
      "name": "addCropInfo",
      "outputs": [],
      "stateMutability": "nonpayable",
      "type": "function"
    },
    {
      "inputs": [
        {
          "internalType": "string[]",
          "name": "_fertilizers",
          "type": "string[]"
        }
      ],
      "name": "addFertilizers",
      "outputs": [],
      "stateMutability": "nonpayable",
      "type": "function"
    },
    {
      "inputs": [],
      "name": "cropCount",
      "outputs": [
        {
          "internalType": "uint256",
          "name": "",
          "type": "uint256"
        }
      ],
      "stateMutability": "view",
      "type": "function"
    },
    {
      "inputs": [
        {
          "internalType": "uint256",
          "name": "",
          "type": "uint256"
        }
      ],
      "name": "crops",
      "outputs": [
        {
          "internalType": "uint256",
          "name": "cropId",
          "type": "uint256"
        },
        {
          "internalType": "string",
          "name": "cropType",
          "type": "string"
        },
        {
          "internalType": "uint256",
          "name": "plantingDate",
          "type": "uint256"
        },
        {
          "internalType": "uint256",
          "name": "monthsToHavest",
          "type": "uint256"
        },
        {
          "internalType": "string",
          "name": "additionalInfo",
          "type": "string"
        },
        {
          "internalType": "string",
          "name": "harvestDate",
          "type": "string"
        }
      ],
      "stateMutability": "view",
      "type": "function"
    },
    {
      "inputs": [],
      "name": "getAllCropsInfo",
      "outputs": [
        {
          "components": [
            {
              "internalType": "uint256",
              "name": "cropId",
              "type": "uint256"
            },
            {
              "internalType": "string",
              "name": "cropType",
              "type": "string"
            },
            {
              "internalType": "uint256",
              "name": "plantingDate",
              "type": "uint256"
            },
            {
              "internalType": "uint256",
              "name": "monthsToHavest",
              "type": "uint256"
            },
            {
              "internalType": "string[]",
              "name": "fertilizers",
              "type": "string[]"
            },
            {
              "internalType": "string[]",
              "name": "pesticides",
              "type": "string[]"
            },
            {
              "internalType": "string[]",
              "name": "diseases",
              "type": "string[]"
            },
            {
              "internalType": "string",
              "name": "additionalInfo",
              "type": "string"
            },
            {
              "internalType": "string",
              "name": "harvestDate",
              "type": "string"
            }
          ],
          "internalType": "struct CropInfo.Crop[]",
          "name": "",
          "type": "tuple[]"
        }
      ],
      "stateMutability": "view",
      "type": "function"
    },
    {
      "inputs": [
        {
          "internalType": "uint256",
          "name": "_cropId",
          "type": "uint256"
        }
      ],
      "name": "getCropInfo",
      "outputs": [
        {
          "components": [
            {
              "internalType": "uint256",
              "name": "cropId",
              "type": "uint256"
            },
            {
              "internalType": "string",
              "name": "cropType",
              "type": "string"
            },
            {
              "internalType": "uint256",
              "name": "plantingDate",
              "type": "uint256"
            },
            {
              "internalType": "uint256",
              "name": "monthsToHavest",
              "type": "uint256"
            },
            {
              "internalType": "string[]",
              "name": "fertilizers",
              "type": "string[]"
            },
            {
              "internalType": "string[]",
              "name": "pesticides",
              "type": "string[]"
            },
            {
              "internalType": "string[]",
              "name": "diseases",
              "type": "string[]"
            },
            {
              "internalType": "string",
              "name": "additionalInfo",
              "type": "string"
            },
            {
              "internalType": "string",
              "name": "harvestDate",
              "type": "string"
            }
          ],
          "internalType": "struct CropInfo.Crop",
          "name": "",
          "type": "tuple"
        }
      ],
      "stateMutability": "view",
      "type": "function"
    },
    {
      "inputs": [],
      "name": "getNumberOfCrop",
      "outputs": [
        {
          "internalType": "uint256",
          "name": "",
          "type": "uint256"
        }
      ],
      "stateMutability": "view",
      "type": "function"
    },
    {
      "inputs": [
        {
          "internalType": "string[]",
          "name": "_fertilizers",
          "type": "string[]"
        },
        {
          "internalType": "string",
          "name": "_fertilizer",
          "type": "string"
        }
      ],
      "name": "isFertilizerExisted",
      "outputs": [
        {
          "internalType": "bool",
          "name": "",
          "type": "bool"
        }
      ],
      "stateMutability": "pure",
      "type": "function"
    },
    {
      "inputs": [
        {
          "internalType": "uint256",
          "name": "_cropId",
          "type": "uint256"
        },
        {
          "internalType": "string",
          "name": "_cropType",
          "type": "string"
        },
        {
          "internalType": "uint256",
          "name": "_plantingDate",
          "type": "uint256"
        },
        {
          "internalType": "uint256",
          "name": "_monthsToHavest",
          "type": "uint256"
        },
        {
          "internalType": "string[]",
          "name": "_fertilizers",
          "type": "string[]"
        },
        {
          "internalType": "string[]",
          "name": "_pesticides",
          "type": "string[]"
        },
        {
          "internalType": "string[]",
          "name": "_diseases",
          "type": "string[]"
        },
        {
          "internalType": "string",
          "name": "additionalInfo",
          "type": "string"
        },
        {
          "internalType": "string",
          "name": "_harvestDate",
          "type": "string"
        }
      ],
      "name": "updateCropHarvestDate",
      "outputs": [],
      "stateMutability": "nonpayable",
      "type": "function"
    },
    {
      "inputs": [
        {
          "internalType": "uint256",
          "name": "_cropId",
          "type": "uint256"
        },
        {
          "internalType": "string",
          "name": "_cropType",
          "type": "string"
        },
        {
          "internalType": "uint256",
          "name": "_plantingDate",
          "type": "uint256"
        },
        {
          "internalType": "uint256",
          "name": "_monthsToHavest",
          "type": "uint256"
        },
        {
          "internalType": "string[]",
          "name": "_fertilizers",
          "type": "string[]"
        },
        {
          "internalType": "string[]",
          "name": "_pesticides",
          "type": "string[]"
        },
        {
          "internalType": "string[]",
          "name": "_diseases",
          "type": "string[]"
        },
        {
          "internalType": "string",
          "name": "additionalInfo",
          "type": "string"
        }
      ],
      "name": "updateCropInfo",
      "outputs": [],
      "stateMutability": "nonpayable",
      "type": "function"
    }
  ],
  "bytecode": "0x608060405234801561001057600080fd5b506125f1806100206000396000f3fe608060405234801561001057600080fd5b506004361061009e5760003560e01c80634148fdbd116100665780634148fdbd1461014757806370c9f1a5146101635780638b964b4b146101985780638c9d193b146101b4578063dfd55a2c146101e45761009e565b806301481dd5146100a3578063111479fb146100bf5780631f582b59146100dd5780632896fa16146100fb57806328a75a8d1461012b575b600080fd5b6100bd60048036038101906100b891906117ba565b610202565b005b6100c7610363565b6040516100d4919061190b565b60405180910390f35b6100e561036d565b6040516100f29190611c20565b60405180910390f35b61011560048036038101906101109190611c42565b61088c565b6040516101229190611d57565b60405180910390f35b61014560048036038101906101409190611d79565b610d18565b005b610161600480360381019061015c9190611eeb565b610e30565b005b61017d60048036038101906101789190611c42565b610fe3565b60405161018f96959493929190611f7e565b60405180910390f35b6101b260048036038101906101ad9190611ff4565b6111b7565b005b6101ce60048036038101906101c99190612136565b611371565b6040516101db91906121c9565b60405180910390f35b6101ec611418565b6040516101f9919061190b565b60405180910390f35b60005b818110156103585760405180610120016040528060015481526020018a815260200189815260200188815260200187815260200186815260200185815260200184815260200160405180602001604052806000815250815250600080600154815260200190815260200160002060008201518160000155602082015181600101908161029191906123f0565b50604082015181600201556060820151816003015560808201518160040190805190602001906102c292919061141e565b5060a08201518160050190805190602001906102df92919061141e565b5060c08201518160060190805190602001906102fc92919061141e565b5060e082015181600701908161031291906123f0565b5061010082015181600801908161032991906123f0565b5090505060016000815480929190610340906124f1565b91905055508080610350906124f1565b915050610205565b505050505050505050565b6000600154905090565b6060600060015467ffffffffffffffff81111561038d5761038c611573565b5b6040519080825280602002602001820160405280156103c657816020015b6103b3611477565b8152602001906001900390816103ab5790505b50905060005b60015481101561088457600080828152602001908152602001600020604051806101200160405290816000820154815260200160018201805461040e90612213565b80601f016020809104026020016040519081016040528092919081815260200182805461043a90612213565b80156104875780601f1061045c57610100808354040283529160200191610487565b820191906000526020600020905b81548152906001019060200180831161046a57829003601f168201915b50505050508152602001600282015481526020016003820154815260200160048201805480602002602001604051908101604052809291908181526020016000905b828210156105755783829060005260206000200180546104e890612213565b80601f016020809104026020016040519081016040528092919081815260200182805461051490612213565b80156105615780601f1061053657610100808354040283529160200191610561565b820191906000526020600020905b81548152906001019060200180831161054457829003601f168201915b5050505050815260200190600101906104c9565b50505050815260200160058201805480602002602001604051908101604052809291908181526020016000905b8282101561064e5783829060005260206000200180546105c190612213565b80601f01602080910402602001604051908101604052809291908181526020018280546105ed90612213565b801561063a5780601f1061060f5761010080835404028352916020019161063a565b820191906000526020600020905b81548152906001019060200180831161061d57829003601f168201915b5050505050815260200190600101906105a2565b50505050815260200160068201805480602002602001604051908101604052809291908181526020016000905b8282101561072757838290600052602060002001805461069a90612213565b80601f01602080910402602001604051908101604052809291908181526020018280546106c690612213565b80156107135780601f106106e857610100808354040283529160200191610713565b820191906000526020600020905b8154815290600101906020018083116106f657829003601f168201915b50505050508152602001906001019061067b565b50505050815260200160078201805461073f90612213565b80601f016020809104026020016040519081016040528092919081815260200182805461076b90612213565b80156107b85780601f1061078d576101008083540402835291602001916107b8565b820191906000526020600020905b81548152906001019060200180831161079b57829003601f168201915b505050505081526020016008820180546107d190612213565b80601f01602080910402602001604051908101604052809291908181526020018280546107fd90612213565b801561084a5780601f1061081f5761010080835404028352916020019161084a565b820191906000526020600020905b81548152906001019060200180831161082d57829003601f168201915b50505050508152505082828151811061086657610865612539565b5b6020026020010181905250808061087c906124f1565b9150506103cc565b508091505090565b610894611477565b60008083815260200190815260200160002060405180610120016040529081600082015481526020016001820180546108cc90612213565b80601f01602080910402602001604051908101604052809291908181526020018280546108f890612213565b80156109455780601f1061091a57610100808354040283529160200191610945565b820191906000526020600020905b81548152906001019060200180831161092857829003601f168201915b50505050508152602001600282015481526020016003820154815260200160048201805480602002602001604051908101604052809291908181526020016000905b82821015610a335783829060005260206000200180546109a690612213565b80601f01602080910402602001604051908101604052809291908181526020018280546109d290612213565b8015610a1f5780601f106109f457610100808354040283529160200191610a1f565b820191906000526020600020905b815481529060010190602001808311610a0257829003601f168201915b505050505081526020019060010190610987565b50505050815260200160058201805480602002602001604051908101604052809291908181526020016000905b82821015610b0c578382906000526020600020018054610a7f90612213565b80601f0160208091040260200160405190810160405280929190818152602001828054610aab90612213565b8015610af85780601f10610acd57610100808354040283529160200191610af8565b820191906000526020600020905b815481529060010190602001808311610adb57829003601f168201915b505050505081526020019060010190610a60565b50505050815260200160068201805480602002602001604051908101604052809291908181526020016000905b82821015610be5578382906000526020600020018054610b5890612213565b80601f0160208091040260200160405190810160405280929190818152602001828054610b8490612213565b8015610bd15780601f10610ba657610100808354040283529160200191610bd1565b820191906000526020600020905b815481529060010190602001808311610bb457829003601f168201915b505050505081526020019060010190610b39565b505050508152602001600782018054610bfd90612213565b80601f0160208091040260200160405190810160405280929190818152602001828054610c2990612213565b8015610c765780601f10610c4b57610100808354040283529160200191610c76565b820191906000526020600020905b815481529060010190602001808311610c5957829003601f168201915b50505050508152602001600882018054610c8f90612213565b80601f0160208091040260200160405190810160405280929190818152602001828054610cbb90612213565b8015610d085780601f10610cdd57610100808354040283529160200191610d08565b820191906000526020600020905b815481529060010190602001808311610ceb57829003601f168201915b5050505050815250509050919050565b6040518061012001604052808a8152602001898152602001888152602001878152602001868152602001858152602001848152602001838152602001828152506000808b8152602001908152602001600020600082015181600001556020820151816001019081610d8991906123f0565b5060408201518160020155606082015181600301556080820151816004019080519060200190610dba92919061141e565b5060a0820151816005019080519060200190610dd792919061141e565b5060c0820151816006019080519060200190610df492919061141e565b5060e0820151816007019081610e0a91906123f0565b50610100820151816008019081610e2191906123f0565b50905050505050505050505050565b60005b600154811015610fdf5760005b8251811015610fcb57610f51600080848152602001908152602001600020600401805480602002602001604051908101604052809291908181526020016000905b82821015610f2d578382906000526020600020018054610ea090612213565b80601f0160208091040260200160405190810160405280929190818152602001828054610ecc90612213565b8015610f195780601f10610eee57610100808354040283529160200191610f19565b820191906000526020600020905b815481529060010190602001808311610efc57829003601f168201915b505050505081526020019060010190610e81565b50505050848381518110610f4457610f43612539565b5b6020026020010151611371565b610fb857600080838152602001908152602001600020600401838281518110610f7d57610f7c612539565b5b6020026020010151908060018154018082558091505060019003906000526020600020016000909190919091509081610fb691906123f0565b505b8080610fc3906124f1565b915050610e40565b508080610fd7906124f1565b915050610e33565b5050565b600060205280600052604060002060009150905080600001549080600101805461100c90612213565b80601f016020809104026020016040519081016040528092919081815260200182805461103890612213565b80156110855780601f1061105a57610100808354040283529160200191611085565b820191906000526020600020905b81548152906001019060200180831161106857829003601f168201915b5050505050908060020154908060030154908060070180546110a690612213565b80601f01602080910402602001604051908101604052809291908181526020018280546110d290612213565b801561111f5780601f106110f45761010080835404028352916020019161111f565b820191906000526020600020905b81548152906001019060200180831161110257829003601f168201915b50505050509080600801805461113490612213565b80601f016020809104026020016040519081016040528092919081815260200182805461116090612213565b80156111ad5780601f10611182576101008083540402835291602001916111ad565b820191906000526020600020905b81548152906001019060200180831161119057829003601f168201915b5050505050905086565b60008060008a815260200190815260200160002060080180546111d990612213565b80601f016020809104026020016040519081016040528092919081815260200182805461120590612213565b80156112525780601f1061122757610100808354040283529160200191611252565b820191906000526020600020905b81548152906001019060200180831161123557829003601f168201915b505050505090506040518061012001604052808a8152602001898152602001888152602001878152602001868152602001858152602001848152602001838152602001828152506000808b81526020019081526020016000206000820151816000015560208201518160010190816112ca91906123f0565b50604082015181600201556060820151816003015560808201518160040190805190602001906112fb92919061141e565b5060a082015181600501908051906020019061131892919061141e565b5060c082015181600601908051906020019061133592919061141e565b5060e082015181600701908161134b91906123f0565b5061010082015181600801908161136291906123f0565b50905050505050505050505050565b600080600090505b835181101561140c578260405160200161139391906125a4565b604051602081830303815290604052805190602001208482815181106113bc576113bb612539565b5b60200260200101516040516020016113d491906125a4565b60405160208183030381529060405280519060200120036113f9576001915050611412565b8080611404906124f1565b915050611379565b50600090505b92915050565b60015481565b828054828255906000526020600020908101928215611466579160200282015b8281111561146557825182908161145591906123f0565b509160200191906001019061143e565b5b50905061147391906114c3565b5090565b6040518061012001604052806000815260200160608152602001600081526020016000815260200160608152602001606081526020016060815260200160608152602001606081525090565b5b808211156114e357600081816114da91906114e7565b506001016114c4565b5090565b5080546114f390612213565b6000825580601f106115055750611524565b601f0160209004906000526020600020908101906115239190611527565b5b50565b5b80821115611540576000816000905550600101611528565b5090565b6000604051905090565b600080fd5b600080fd5b600080fd5b600080fd5b6000601f19601f8301169050919050565b7f4e487b7100000000000000000000000000000000000000000000000000000000600052604160045260246000fd5b6115ab82611562565b810181811067ffffffffffffffff821117156115ca576115c9611573565b5b80604052505050565b60006115dd611544565b90506115e982826115a2565b919050565b600067ffffffffffffffff82111561160957611608611573565b5b61161282611562565b9050602081019050919050565b82818337600083830152505050565b600061164161163c846115ee565b6115d3565b90508281526020810184848401111561165d5761165c61155d565b5b61166884828561161f565b509392505050565b600082601f83011261168557611684611558565b5b813561169584826020860161162e565b91505092915050565b6000819050919050565b6116b18161169e565b81146116bc57600080fd5b50565b6000813590506116ce816116a8565b92915050565b600067ffffffffffffffff8211156116ef576116ee611573565b5b602082029050602081019050919050565b600080fd5b6000611718611713846116d4565b6115d3565b9050808382526020820190506020840283018581111561173b5761173a611700565b5b835b8181101561178257803567ffffffffffffffff8111156117605761175f611558565b5b80860161176d8982611670565b8552602085019450505060208101905061173d565b5050509392505050565b600082601f8301126117a1576117a0611558565b5b81356117b1848260208601611705565b91505092915050565b600080600080600080600080610100898b0312156117db576117da61154e565b5b600089013567ffffffffffffffff8111156117f9576117f8611553565b5b6118058b828c01611670565b98505060206118168b828c016116bf565b97505060406118278b828c016116bf565b965050606089013567ffffffffffffffff81111561184857611847611553565b5b6118548b828c0161178c565b955050608089013567ffffffffffffffff81111561187557611874611553565b5b6118818b828c0161178c565b94505060a089013567ffffffffffffffff8111156118a2576118a1611553565b5b6118ae8b828c0161178c565b93505060c089013567ffffffffffffffff8111156118cf576118ce611553565b5b6118db8b828c01611670565b92505060e06118ec8b828c016116bf565b9150509295985092959890939650565b6119058161169e565b82525050565b600060208201905061192060008301846118fc565b92915050565b600081519050919050565b600082825260208201905092915050565b6000819050602082019050919050565b61195b8161169e565b82525050565b600081519050919050565b600082825260208201905092915050565b60005b8381101561199b578082015181840152602081019050611980565b60008484015250505050565b60006119b282611961565b6119bc818561196c565b93506119cc81856020860161197d565b6119d581611562565b840191505092915050565b600081519050919050565b600082825260208201905092915050565b6000819050602082019050919050565b6000611a1883836119a7565b905092915050565b6000602082019050919050565b6000611a38826119e0565b611a4281856119eb565b935083602082028501611a54856119fc565b8060005b85811015611a905784840389528151611a718582611a0c565b9450611a7c83611a20565b925060208a01995050600181019050611a58565b50829750879550505050505092915050565b600061012083016000830151611abb6000860182611952565b5060208301518482036020860152611ad382826119a7565b9150506040830151611ae86040860182611952565b506060830151611afb6060860182611952565b5060808301518482036080860152611b138282611a2d565b91505060a083015184820360a0860152611b2d8282611a2d565b91505060c083015184820360c0860152611b478282611a2d565b91505060e083015184820360e0860152611b6182826119a7565b915050610100830151848203610100860152611b7d82826119a7565b9150508091505092915050565b6000611b968383611aa2565b905092915050565b6000602082019050919050565b6000611bb682611926565b611bc08185611931565b935083602082028501611bd285611942565b8060005b85811015611c0e5784840389528151611bef8582611b8a565b9450611bfa83611b9e565b925060208a01995050600181019050611bd6565b50829750879550505050505092915050565b60006020820190508181036000830152611c3a8184611bab565b905092915050565b600060208284031215611c5857611c5761154e565b5b6000611c66848285016116bf565b91505092915050565b600061012083016000830151611c886000860182611952565b5060208301518482036020860152611ca082826119a7565b9150506040830151611cb56040860182611952565b506060830151611cc86060860182611952565b5060808301518482036080860152611ce08282611a2d565b91505060a083015184820360a0860152611cfa8282611a2d565b91505060c083015184820360c0860152611d148282611a2d565b91505060e083015184820360e0860152611d2e82826119a7565b915050610100830151848203610100860152611d4a82826119a7565b9150508091505092915050565b60006020820190508181036000830152611d718184611c6f565b905092915050565b60008060008060008060008060006101208a8c031215611d9c57611d9b61154e565b5b6000611daa8c828d016116bf565b99505060208a013567ffffffffffffffff811115611dcb57611dca611553565b5b611dd78c828d01611670565b9850506040611de88c828d016116bf565b9750506060611df98c828d016116bf565b96505060808a013567ffffffffffffffff811115611e1a57611e19611553565b5b611e268c828d0161178c565b95505060a08a013567ffffffffffffffff811115611e4757611e46611553565b5b611e538c828d0161178c565b94505060c08a013567ffffffffffffffff811115611e7457611e73611553565b5b611e808c828d0161178c565b93505060e08a013567ffffffffffffffff811115611ea157611ea0611553565b5b611ead8c828d01611670565b9250506101008a013567ffffffffffffffff811115611ecf57611ece611553565b5b611edb8c828d01611670565b9150509295985092959850929598565b600060208284031215611f0157611f0061154e565b5b600082013567ffffffffffffffff811115611f1f57611f1e611553565b5b611f2b8482850161178c565b91505092915050565b600082825260208201905092915050565b6000611f5082611961565b611f5a8185611f34565b9350611f6a81856020860161197d565b611f7381611562565b840191505092915050565b600060c082019050611f9360008301896118fc565b8181036020830152611fa58188611f45565b9050611fb460408301876118fc565b611fc160608301866118fc565b8181036080830152611fd38185611f45565b905081810360a0830152611fe78184611f45565b9050979650505050505050565b600080600080600080600080610100898b0312156120155761201461154e565b5b60006120238b828c016116bf565b985050602089013567ffffffffffffffff81111561204457612043611553565b5b6120508b828c01611670565b97505060406120618b828c016116bf565b96505060606120728b828c016116bf565b955050608089013567ffffffffffffffff81111561209357612092611553565b5b61209f8b828c0161178c565b94505060a089013567ffffffffffffffff8111156120c0576120bf611553565b5b6120cc8b828c0161178c565b93505060c089013567ffffffffffffffff8111156120ed576120ec611553565b5b6120f98b828c0161178c565b92505060e089013567ffffffffffffffff81111561211a57612119611553565b5b6121268b828c01611670565b9150509295985092959890939650565b6000806040838503121561214d5761214c61154e565b5b600083013567ffffffffffffffff81111561216b5761216a611553565b5b6121778582860161178c565b925050602083013567ffffffffffffffff81111561219857612197611553565b5b6121a485828601611670565b9150509250929050565b60008115159050919050565b6121c3816121ae565b82525050565b60006020820190506121de60008301846121ba565b92915050565b7f4e487b7100000000000000000000000000000000000000000000000000000000600052602260045260246000fd5b6000600282049050600182168061222b57607f821691505b60208210810361223e5761223d6121e4565b5b50919050565b60008190508160005260206000209050919050565b60006020601f8301049050919050565b600082821b905092915050565b6000600883026122a67fffffffffffffffffffffffffffffffffffffffffffffffffffffffffffffffff82612269565b6122b08683612269565b95508019841693508086168417925050509392505050565b6000819050919050565b60006122ed6122e86122e38461169e565b6122c8565b61169e565b9050919050565b6000819050919050565b612307836122d2565b61231b612313826122f4565b848454612276565b825550505050565b600090565b612330612323565b61233b8184846122fe565b505050565b5b8181101561235f57612354600082612328565b600181019050612341565b5050565b601f8211156123a45761237581612244565b61237e84612259565b8101602085101561238d578190505b6123a161239985612259565b830182612340565b50505b505050565b600082821c905092915050565b60006123c7600019846008026123a9565b1980831691505092915050565b60006123e083836123b6565b9150826002028217905092915050565b6123f982611961565b67ffffffffffffffff81111561241257612411611573565b5b61241c8254612213565b612427828285612363565b600060209050601f83116001811461245a5760008415612448578287015190505b61245285826123d4565b8655506124ba565b601f19841661246886612244565b60005b828110156124905784890151825560018201915060208501945060208101905061246b565b868310156124ad57848901516124a9601f8916826123b6565b8355505b6001600288020188555050505b505050505050565b7f4e487b7100000000000000000000000000000000000000000000000000000000600052601160045260246000fd5b60006124fc8261169e565b91507fffffffffffffffffffffffffffffffffffffffffffffffffffffffffffffffff820361252e5761252d6124c2565b5b600182019050919050565b7f4e487b7100000000000000000000000000000000000000000000000000000000600052603260045260246000fd5b600081905092915050565b600061257e82611961565b6125888185612568565b935061259881856020860161197d565b80840191505092915050565b60006125b08284612573565b91508190509291505056fea2646970667358221220bb25137859d71c024ef08723829ff0a83ed78666a8e9b0a3327fd47cc74f6ce264736f6c63430008130033",
  "linkReferences": {},
  "deployedLinkReferences": {}
}