{
  "_format": "hh-sol-artifact-1",
  "contractName": "CropInfo",
  "sourceName": "contracts/CropInfo.sol",
  "abi": [
    {
      "inputs": [
        {
          "internalType": "string",
          "name": "cropType",
          "type": "string"
        },
        {
          "internalType": "uint256",
          "name": "plantingDate",
          "type": "uint256"
        },
        {
          "internalType": "uint256",
          "name": "harvestDate",
          "type": "uint256"
        },
        {
          "internalType": "string[]",
          "name": "fertilizers",
          "type": "string[]"
        },
        {
          "internalType": "string[]",
          "name": "pesticides",
          "type": "string[]"
        },
        {
          "internalType": "uint256",
          "name": "price",
          "type": "uint256"
        },
        {
          "internalType": "string",
          "name": "owner",
          "type": "string"
        }
      ],
      "name": "addCropInfo",
      "outputs": [],
      "stateMutability": "nonpayable",
      "type": "function"
    },
    {
      "inputs": [],
      "name": "cropCount",
      "outputs": [
        {
          "internalType": "uint256",
          "name": "",
          "type": "uint256"
        }
      ],
      "stateMutability": "view",
      "type": "function"
    },
    {
      "inputs": [],
      "name": "getAllCropsInfo",
      "outputs": [
        {
          "components": [
            {
              "internalType": "uint256",
              "name": "cropId",
              "type": "uint256"
            },
            {
              "internalType": "string",
              "name": "cropType",
              "type": "string"
            },
            {
              "internalType": "uint256",
              "name": "plantingDate",
              "type": "uint256"
            },
            {
              "internalType": "uint256",
              "name": "harvestDate",
              "type": "uint256"
            },
            {
              "internalType": "string[]",
              "name": "fertilizers",
              "type": "string[]"
            },
            {
              "internalType": "string[]",
              "name": "pesticides",
              "type": "string[]"
            },
            {
              "internalType": "uint256",
              "name": "price",
              "type": "uint256"
            },
            {
              "internalType": "string",
              "name": "owner",
              "type": "string"
            }
          ],
          "internalType": "struct CropInfo.Crop[]",
          "name": "",
          "type": "tuple[]"
        }
      ],
      "stateMutability": "view",
      "type": "function"
    },
    {
      "inputs": [],
      "name": "getCropCount",
      "outputs": [
        {
          "internalType": "uint256",
          "name": "",
          "type": "uint256"
        }
      ],
      "stateMutability": "view",
      "type": "function"
    }
  ],
  "bytecode": "0x608060405234801561001057600080fd5b50610dfa806100206000396000f3fe608060405234801561001057600080fd5b506004361061004c5760003560e01c80631f582b591461005157806388fe94731461006f578063b85c310b1461008d578063dfd55a2c146100a9575b600080fd5b6100596100c7565b6040516100669190610af0565b60405180910390f35b610077610425565b6040516100849190610b12565b60405180910390f35b6100a760048036038101906100a291906107c4565b61042e565b005b6100b1610553565b6040516100be9190610b12565b60405180910390f35b60606001805480602002602001604051908101604052809291908181526020016000905b8282101561041c5783829060005260206000209060080201604051806101000160405290816000820154815260200160018201805461012990610c94565b80601f016020809104026020016040519081016040528092919081815260200182805461015590610c94565b80156101a25780601f10610177576101008083540402835291602001916101a2565b820191906000526020600020905b81548152906001019060200180831161018557829003601f168201915b50505050508152602001600282015481526020016003820154815260200160048201805480602002602001604051908101604052809291908181526020016000905b8282101561029057838290600052602060002001805461020390610c94565b80601f016020809104026020016040519081016040528092919081815260200182805461022f90610c94565b801561027c5780601f106102515761010080835404028352916020019161027c565b820191906000526020600020905b81548152906001019060200180831161025f57829003601f168201915b5050505050815260200190600101906101e4565b50505050815260200160058201805480602002602001604051908101604052809291908181526020016000905b828210156103695783829060005260206000200180546102dc90610c94565b80601f016020809104026020016040519081016040528092919081815260200182805461030890610c94565b80156103555780601f1061032a57610100808354040283529160200191610355565b820191906000526020600020905b81548152906001019060200180831161033857829003601f168201915b5050505050815260200190600101906102bd565b5050505081526020016006820154815260200160078201805461038b90610c94565b80601f01602080910402602001604051908101604052809291908181526020018280546103b790610c94565b80156104045780601f106103d957610100808354040283529160200191610404565b820191906000526020600020905b8154815290600101906020018083116103e757829003601f168201915b505050505081525050815260200190600101906100eb565b50505050905090565b60008054905090565b60008081548092919061044090610cc6565b9190505550600160405180610100016040528060005481526020018981526020018881526020018781526020018681526020018581526020018481526020018381525090806001815401808255809150506001900390600052602060002090600802016000909190919091506000820151816000015560208201518160010190805190602001906104d2929190610559565b50604082015181600201556060820151816003015560808201518160040190805190602001906105039291906105df565b5060a08201518160050190805190602001906105209291906105df565b5060c0820151816006015560e0820151816007019080519060200190610547929190610559565b50505050505050505050565b60005481565b82805461056590610c94565b90600052602060002090601f01602090048101928261058757600085556105ce565b82601f106105a057805160ff19168380011785556105ce565b828001600101855582156105ce579182015b828111156105cd5782518255916020019190600101906105b2565b5b5090506105db919061063f565b5090565b82805482825590600052602060002090810192821561062e579160200282015b8281111561062d57825182908051906020019061061d929190610559565b50916020019190600101906105ff565b5b50905061063b919061065c565b5090565b5b80821115610658576000816000905550600101610640565b5090565b5b8082111561067c57600081816106739190610680565b5060010161065d565b5090565b50805461068c90610c94565b6000825580601f1061069e57506106bd565b601f0160209004906000526020600020908101906106bc919061063f565b5b50565b60006106d36106ce84610b5e565b610b2d565b9050808382526020820190508260005b8581101561071357813585016106f98882610785565b8452602084019350602083019250506001810190506106e3565b5050509392505050565b600061073061072b84610b8a565b610b2d565b90508281526020810184848401111561074857600080fd5b610753848285610c52565b509392505050565b600082601f83011261076c57600080fd5b813561077c8482602086016106c0565b91505092915050565b600082601f83011261079657600080fd5b81356107a684826020860161071d565b91505092915050565b6000813590506107be81610dad565b92915050565b600080600080600080600060e0888a0312156107df57600080fd5b600088013567ffffffffffffffff8111156107f957600080fd5b6108058a828b01610785565b97505060206108168a828b016107af565b96505060406108278a828b016107af565b955050606088013567ffffffffffffffff81111561084457600080fd5b6108508a828b0161075b565b945050608088013567ffffffffffffffff81111561086d57600080fd5b6108798a828b0161075b565b93505060a061088a8a828b016107af565b92505060c088013567ffffffffffffffff8111156108a757600080fd5b6108b38a828b01610785565b91505092959891949750929550565b60006108ce83836109d4565b905092915050565b60006108e28383610a0d565b905092915050565b60006108f582610bda565b6108ff8185610c15565b93508360208202850161091185610bba565b8060005b8581101561094d578484038952815161092e85826108c2565b945061093983610bfb565b925060208a01995050600181019050610915565b50829750879550505050505092915050565b600061096a82610be5565b6109748185610c26565b93508360208202850161098685610bca565b8060005b858110156109c257848403895281516109a385826108d6565b94506109ae83610c08565b925060208a0199505060018101905061098a565b50829750879550505050505092915050565b60006109df82610bf0565b6109e98185610c37565b93506109f9818560208601610c61565b610a0281610d9c565b840191505092915050565b600061010083016000830151610a266000860182610ad2565b5060208301518482036020860152610a3e82826109d4565b9150506040830151610a536040860182610ad2565b506060830151610a666060860182610ad2565b5060808301518482036080860152610a7e82826108ea565b91505060a083015184820360a0860152610a9882826108ea565b91505060c0830151610aad60c0860182610ad2565b5060e083015184820360e0860152610ac582826109d4565b9150508091505092915050565b610adb81610c48565b82525050565b610aea81610c48565b82525050565b60006020820190508181036000830152610b0a818461095f565b905092915050565b6000602082019050610b276000830184610ae1565b92915050565b6000604051905081810181811067ffffffffffffffff82111715610b5457610b53610d6d565b5b8060405250919050565b600067ffffffffffffffff821115610b7957610b78610d6d565b5b602082029050602081019050919050565b600067ffffffffffffffff821115610ba557610ba4610d6d565b5b601f19601f8301169050602081019050919050565b6000819050602082019050919050565b6000819050602082019050919050565b600081519050919050565b600081519050919050565b600081519050919050565b6000602082019050919050565b6000602082019050919050565b600082825260208201905092915050565b600082825260208201905092915050565b600082825260208201905092915050565b6000819050919050565b82818337600083830152505050565b60005b83811015610c7f578082015181840152602081019050610c64565b83811115610c8e576000848401525b50505050565b60006002820490506001821680610cac57607f821691505b60208210811415610cc057610cbf610d3e565b5b50919050565b6000610cd182610c48565b91507fffffffffffffffffffffffffffffffffffffffffffffffffffffffffffffffff821415610d0457610d03610d0f565b5b600182019050919050565b7f4e487b7100000000000000000000000000000000000000000000000000000000600052601160045260246000fd5b7f4e487b7100000000000000000000000000000000000000000000000000000000600052602260045260246000fd5b7f4e487b7100000000000000000000000000000000000000000000000000000000600052604160045260246000fd5b6000601f19601f8301169050919050565b610db681610c48565b8114610dc157600080fd5b5056fea26469706673582212207bd135dbcac5a61be27666e938f9fcfa228a10c64b1fb17a45bf11397ff208c264736f6c63430008000033",
  "linkReferences": {},
  "deployedLinkReferences": {}
}