{
  "_format": "hh-sol-artifact-1",
  "contractName": "CropInfo",
  "sourceName": "contracts/CropInfo.sol",
  "abi": [
    {
      "inputs": [
        {
          "internalType": "string",
          "name": "_cropType",
          "type": "string"
        },
        {
          "internalType": "uint256",
          "name": "_plantingDate",
          "type": "uint256"
        },
        {
          "internalType": "uint256",
          "name": "_monthsToHavest",
          "type": "uint256"
        },
        {
          "internalType": "string[]",
          "name": "_fertilizers",
          "type": "string[]"
        },
        {
          "internalType": "string[]",
          "name": "_pesticides",
          "type": "string[]"
        },
        {
          "internalType": "string[]",
          "name": "_diseases",
          "type": "string[]"
        },
        {
          "internalType": "string",
          "name": "additionalInfo",
          "type": "string"
        },
        {
          "internalType": "uint256",
          "name": "_noOfCrops",
          "type": "uint256"
        }
      ],
      "name": "addCropInfo",
      "outputs": [],
      "stateMutability": "nonpayable",
      "type": "function"
    },
    {
      "inputs": [],
      "name": "cropCount",
      "outputs": [
        {
          "internalType": "uint256",
          "name": "",
          "type": "uint256"
        }
      ],
      "stateMutability": "view",
      "type": "function"
    },
    {
      "inputs": [
        {
          "internalType": "uint256",
          "name": "",
          "type": "uint256"
        }
      ],
      "name": "crops",
      "outputs": [
        {
          "internalType": "uint256",
          "name": "cropId",
          "type": "uint256"
        },
        {
          "internalType": "string",
          "name": "cropType",
          "type": "string"
        },
        {
          "internalType": "uint256",
          "name": "plantingDate",
          "type": "uint256"
        },
        {
          "internalType": "uint256",
          "name": "monthsToHavest",
          "type": "uint256"
        },
        {
          "internalType": "string",
          "name": "additionalInfo",
          "type": "string"
        }
      ],
      "stateMutability": "view",
      "type": "function"
    },
    {
      "inputs": [],
      "name": "getAllCropsInfo",
      "outputs": [
        {
          "components": [
            {
              "internalType": "uint256",
              "name": "cropId",
              "type": "uint256"
            },
            {
              "internalType": "string",
              "name": "cropType",
              "type": "string"
            },
            {
              "internalType": "uint256",
              "name": "plantingDate",
              "type": "uint256"
            },
            {
              "internalType": "uint256",
              "name": "monthsToHavest",
              "type": "uint256"
            },
            {
              "internalType": "string[]",
              "name": "fertilizers",
              "type": "string[]"
            },
            {
              "internalType": "string[]",
              "name": "pesticides",
              "type": "string[]"
            },
            {
              "internalType": "string[]",
              "name": "diseases",
              "type": "string[]"
            },
            {
              "internalType": "string",
              "name": "additionalInfo",
              "type": "string"
            }
          ],
          "internalType": "struct CropInfo.Crop[]",
          "name": "",
          "type": "tuple[]"
        }
      ],
      "stateMutability": "view",
      "type": "function"
    },
    {
      "inputs": [
        {
          "internalType": "uint256",
          "name": "_cropId",
          "type": "uint256"
        }
      ],
      "name": "getCropInfo",
      "outputs": [
        {
          "components": [
            {
              "internalType": "uint256",
              "name": "cropId",
              "type": "uint256"
            },
            {
              "internalType": "string",
              "name": "cropType",
              "type": "string"
            },
            {
              "internalType": "uint256",
              "name": "plantingDate",
              "type": "uint256"
            },
            {
              "internalType": "uint256",
              "name": "monthsToHavest",
              "type": "uint256"
            },
            {
              "internalType": "string[]",
              "name": "fertilizers",
              "type": "string[]"
            },
            {
              "internalType": "string[]",
              "name": "pesticides",
              "type": "string[]"
            },
            {
              "internalType": "string[]",
              "name": "diseases",
              "type": "string[]"
            },
            {
              "internalType": "string",
              "name": "additionalInfo",
              "type": "string"
            }
          ],
          "internalType": "struct CropInfo.Crop",
          "name": "",
          "type": "tuple"
        }
      ],
      "stateMutability": "view",
      "type": "function"
    },
    {
      "inputs": [],
      "name": "getNumberOfCrop",
      "outputs": [
        {
          "internalType": "uint256",
          "name": "",
          "type": "uint256"
        }
      ],
      "stateMutability": "view",
      "type": "function"
    },
    {
      "inputs": [
        {
          "internalType": "uint256",
          "name": "_cropId",
          "type": "uint256"
        },
        {
          "internalType": "string",
          "name": "_cropType",
          "type": "string"
        },
        {
          "internalType": "uint256",
          "name": "_plantingDate",
          "type": "uint256"
        },
        {
          "internalType": "uint256",
          "name": "_monthsToHavest",
          "type": "uint256"
        },
        {
          "internalType": "string[]",
          "name": "_fertilizers",
          "type": "string[]"
        },
        {
          "internalType": "string[]",
          "name": "_pesticides",
          "type": "string[]"
        },
        {
          "internalType": "string[]",
          "name": "_diseases",
          "type": "string[]"
        },
        {
          "internalType": "string",
          "name": "additionalInfo",
          "type": "string"
        }
      ],
      "name": "updateCropInfo",
      "outputs": [],
      "stateMutability": "nonpayable",
      "type": "function"
    }
  ],
  "bytecode": "0x608060405234801561001057600080fd5b50611c47806100206000396000f3fe608060405234801561001057600080fd5b506004361061007d5760003560e01c80632896fa161161005b5780632896fa16146100da57806370c9f1a51461010a5780638b964b4b1461013e578063dfd55a2c1461015a5761007d565b806301481dd514610082578063111479fb1461009e5780631f582b59146100bc575b600080fd5b61009c60048036038101906100979190611119565b610178565b005b6100a66102ad565b6040516100b3919061126a565b60405180910390f35b6100c46102b7565b6040516100d19190611563565b60405180910390f35b6100f460048036038101906100ef9190611585565b610744565b604051610101919061167e565b60405180910390f35b610124600480360381019061011f9190611585565b610b3e565b6040516101359594939291906116ea565b60405180910390f35b6101586004803603810190610153919061174b565b610c84565b005b610162610d7e565b60405161016f919061126a565b60405180910390f35b60005b818110156102a25760405180610100016040528060015481526020018a81526020018981526020018881526020018781526020018681526020018581526020018481525060008060015481526020019081526020016000206000820151816000015560208201518160010190816101f29190611a99565b5060408201518160020155606082015181600301556080820151816004019080519060200190610223929190610d84565b5060a0820151816005019080519060200190610240929190610d84565b5060c082015181600601908051906020019061025d929190610d84565b5060e08201518160070190816102739190611a99565b509050506001600081548092919061028a90611b9a565b9190505550808061029a90611b9a565b91505061017b565b505050505050505050565b6000600154905090565b6060600060015467ffffffffffffffff8111156102d7576102d6610ed2565b5b60405190808252806020026020018201604052801561031057816020015b6102fd610ddd565b8152602001906001900390816102f55790505b50905060005b60015481101561073c576000808281526020019081526020016000206040518061010001604052908160008201548152602001600182018054610358906118bc565b80601f0160208091040260200160405190810160405280929190818152602001828054610384906118bc565b80156103d15780601f106103a6576101008083540402835291602001916103d1565b820191906000526020600020905b8154815290600101906020018083116103b457829003601f168201915b50505050508152602001600282015481526020016003820154815260200160048201805480602002602001604051908101604052809291908181526020016000905b828210156104bf578382906000526020600020018054610432906118bc565b80601f016020809104026020016040519081016040528092919081815260200182805461045e906118bc565b80156104ab5780601f10610480576101008083540402835291602001916104ab565b820191906000526020600020905b81548152906001019060200180831161048e57829003601f168201915b505050505081526020019060010190610413565b50505050815260200160058201805480602002602001604051908101604052809291908181526020016000905b8282101561059857838290600052602060002001805461050b906118bc565b80601f0160208091040260200160405190810160405280929190818152602001828054610537906118bc565b80156105845780601f1061055957610100808354040283529160200191610584565b820191906000526020600020905b81548152906001019060200180831161056757829003601f168201915b5050505050815260200190600101906104ec565b50505050815260200160068201805480602002602001604051908101604052809291908181526020016000905b828210156106715783829060005260206000200180546105e4906118bc565b80601f0160208091040260200160405190810160405280929190818152602001828054610610906118bc565b801561065d5780601f106106325761010080835404028352916020019161065d565b820191906000526020600020905b81548152906001019060200180831161064057829003601f168201915b5050505050815260200190600101906105c5565b505050508152602001600782018054610689906118bc565b80601f01602080910402602001604051908101604052809291908181526020018280546106b5906118bc565b80156107025780601f106106d757610100808354040283529160200191610702565b820191906000526020600020905b8154815290600101906020018083116106e557829003601f168201915b50505050508152505082828151811061071e5761071d611be2565b5b6020026020010181905250808061073490611b9a565b915050610316565b508091505090565b61074c610ddd565b6000808381526020019081526020016000206040518061010001604052908160008201548152602001600182018054610784906118bc565b80601f01602080910402602001604051908101604052809291908181526020018280546107b0906118bc565b80156107fd5780601f106107d2576101008083540402835291602001916107fd565b820191906000526020600020905b8154815290600101906020018083116107e057829003601f168201915b50505050508152602001600282015481526020016003820154815260200160048201805480602002602001604051908101604052809291908181526020016000905b828210156108eb57838290600052602060002001805461085e906118bc565b80601f016020809104026020016040519081016040528092919081815260200182805461088a906118bc565b80156108d75780601f106108ac576101008083540402835291602001916108d7565b820191906000526020600020905b8154815290600101906020018083116108ba57829003601f168201915b50505050508152602001906001019061083f565b50505050815260200160058201805480602002602001604051908101604052809291908181526020016000905b828210156109c4578382906000526020600020018054610937906118bc565b80601f0160208091040260200160405190810160405280929190818152602001828054610963906118bc565b80156109b05780601f10610985576101008083540402835291602001916109b0565b820191906000526020600020905b81548152906001019060200180831161099357829003601f168201915b505050505081526020019060010190610918565b50505050815260200160068201805480602002602001604051908101604052809291908181526020016000905b82821015610a9d578382906000526020600020018054610a10906118bc565b80601f0160208091040260200160405190810160405280929190818152602001828054610a3c906118bc565b8015610a895780601f10610a5e57610100808354040283529160200191610a89565b820191906000526020600020905b815481529060010190602001808311610a6c57829003601f168201915b5050505050815260200190600101906109f1565b505050508152602001600782018054610ab5906118bc565b80601f0160208091040260200160405190810160405280929190818152602001828054610ae1906118bc565b8015610b2e5780601f10610b0357610100808354040283529160200191610b2e565b820191906000526020600020905b815481529060010190602001808311610b1157829003601f168201915b5050505050815250509050919050565b6000602052806000526040600020600091509050806000015490806001018054610b67906118bc565b80601f0160208091040260200160405190810160405280929190818152602001828054610b93906118bc565b8015610be05780601f10610bb557610100808354040283529160200191610be0565b820191906000526020600020905b815481529060010190602001808311610bc357829003601f168201915b505050505090806002015490806003015490806007018054610c01906118bc565b80601f0160208091040260200160405190810160405280929190818152602001828054610c2d906118bc565b8015610c7a5780601f10610c4f57610100808354040283529160200191610c7a565b820191906000526020600020905b815481529060010190602001808311610c5d57829003601f168201915b5050505050905085565b604051806101000160405280898152602001888152602001878152602001868152602001858152602001848152602001838152602001828152506000808a8152602001908152602001600020600082015181600001556020820151816001019081610cef9190611a99565b5060408201518160020155606082015181600301556080820151816004019080519060200190610d20929190610d84565b5060a0820151816005019080519060200190610d3d929190610d84565b5060c0820151816006019080519060200190610d5a929190610d84565b5060e0820151816007019081610d709190611a99565b509050505050505050505050565b60015481565b828054828255906000526020600020908101928215610dcc579160200282015b82811115610dcb578251829081610dbb9190611a99565b5091602001919060010190610da4565b5b509050610dd99190610e22565b5090565b60405180610100016040528060008152602001606081526020016000815260200160008152602001606081526020016060815260200160608152602001606081525090565b5b80821115610e425760008181610e399190610e46565b50600101610e23565b5090565b508054610e52906118bc565b6000825580601f10610e645750610e83565b601f016020900490600052602060002090810190610e829190610e86565b5b50565b5b80821115610e9f576000816000905550600101610e87565b5090565b6000604051905090565b600080fd5b600080fd5b600080fd5b600080fd5b6000601f19601f8301169050919050565b7f4e487b7100000000000000000000000000000000000000000000000000000000600052604160045260246000fd5b610f0a82610ec1565b810181811067ffffffffffffffff82111715610f2957610f28610ed2565b5b80604052505050565b6000610f3c610ea3565b9050610f488282610f01565b919050565b600067ffffffffffffffff821115610f6857610f67610ed2565b5b610f7182610ec1565b9050602081019050919050565b82818337600083830152505050565b6000610fa0610f9b84610f4d565b610f32565b905082815260208101848484011115610fbc57610fbb610ebc565b5b610fc7848285610f7e565b509392505050565b600082601f830112610fe457610fe3610eb7565b5b8135610ff4848260208601610f8d565b91505092915050565b6000819050919050565b61101081610ffd565b811461101b57600080fd5b50565b60008135905061102d81611007565b92915050565b600067ffffffffffffffff82111561104e5761104d610ed2565b5b602082029050602081019050919050565b600080fd5b600061107761107284611033565b610f32565b9050808382526020820190506020840283018581111561109a5761109961105f565b5b835b818110156110e157803567ffffffffffffffff8111156110bf576110be610eb7565b5b8086016110cc8982610fcf565b8552602085019450505060208101905061109c565b5050509392505050565b600082601f830112611100576110ff610eb7565b5b8135611110848260208601611064565b91505092915050565b600080600080600080600080610100898b03121561113a57611139610ead565b5b600089013567ffffffffffffffff81111561115857611157610eb2565b5b6111648b828c01610fcf565b98505060206111758b828c0161101e565b97505060406111868b828c0161101e565b965050606089013567ffffffffffffffff8111156111a7576111a6610eb2565b5b6111b38b828c016110eb565b955050608089013567ffffffffffffffff8111156111d4576111d3610eb2565b5b6111e08b828c016110eb565b94505060a089013567ffffffffffffffff81111561120157611200610eb2565b5b61120d8b828c016110eb565b93505060c089013567ffffffffffffffff81111561122e5761122d610eb2565b5b61123a8b828c01610fcf565b92505060e061124b8b828c0161101e565b9150509295985092959890939650565b61126481610ffd565b82525050565b600060208201905061127f600083018461125b565b92915050565b600081519050919050565b600082825260208201905092915050565b6000819050602082019050919050565b6112ba81610ffd565b82525050565b600081519050919050565b600082825260208201905092915050565b60005b838110156112fa5780820151818401526020810190506112df565b60008484015250505050565b6000611311826112c0565b61131b81856112cb565b935061132b8185602086016112dc565b61133481610ec1565b840191505092915050565b600081519050919050565b600082825260208201905092915050565b6000819050602082019050919050565b60006113778383611306565b905092915050565b6000602082019050919050565b60006113978261133f565b6113a1818561134a565b9350836020820285016113b38561135b565b8060005b858110156113ef57848403895281516113d0858261136b565b94506113db8361137f565b925060208a019950506001810190506113b7565b50829750879550505050505092915050565b60006101008301600083015161141a60008601826112b1565b50602083015184820360208601526114328282611306565b915050604083015161144760408601826112b1565b50606083015161145a60608601826112b1565b5060808301518482036080860152611472828261138c565b91505060a083015184820360a086015261148c828261138c565b91505060c083015184820360c08601526114a6828261138c565b91505060e083015184820360e08601526114c08282611306565b9150508091505092915050565b60006114d98383611401565b905092915050565b6000602082019050919050565b60006114f982611285565b6115038185611290565b935083602082028501611515856112a1565b8060005b85811015611551578484038952815161153285826114cd565b945061153d836114e1565b925060208a01995050600181019050611519565b50829750879550505050505092915050565b6000602082019050818103600083015261157d81846114ee565b905092915050565b60006020828403121561159b5761159a610ead565b5b60006115a98482850161101e565b91505092915050565b6000610100830160008301516115cb60008601826112b1565b50602083015184820360208601526115e38282611306565b91505060408301516115f860408601826112b1565b50606083015161160b60608601826112b1565b5060808301518482036080860152611623828261138c565b91505060a083015184820360a086015261163d828261138c565b91505060c083015184820360c0860152611657828261138c565b91505060e083015184820360e08601526116718282611306565b9150508091505092915050565b6000602082019050818103600083015261169881846115b2565b905092915050565b600082825260208201905092915050565b60006116bc826112c0565b6116c681856116a0565b93506116d68185602086016112dc565b6116df81610ec1565b840191505092915050565b600060a0820190506116ff600083018861125b565b818103602083015261171181876116b1565b9050611720604083018661125b565b61172d606083018561125b565b818103608083015261173f81846116b1565b90509695505050505050565b600080600080600080600080610100898b03121561176c5761176b610ead565b5b600061177a8b828c0161101e565b985050602089013567ffffffffffffffff81111561179b5761179a610eb2565b5b6117a78b828c01610fcf565b97505060406117b88b828c0161101e565b96505060606117c98b828c0161101e565b955050608089013567ffffffffffffffff8111156117ea576117e9610eb2565b5b6117f68b828c016110eb565b94505060a089013567ffffffffffffffff81111561181757611816610eb2565b5b6118238b828c016110eb565b93505060c089013567ffffffffffffffff81111561184457611843610eb2565b5b6118508b828c016110eb565b92505060e089013567ffffffffffffffff81111561187157611870610eb2565b5b61187d8b828c01610fcf565b9150509295985092959890939650565b7f4e487b7100000000000000000000000000000000000000000000000000000000600052602260045260246000fd5b600060028204905060018216806118d457607f821691505b6020821081036118e7576118e661188d565b5b50919050565b60008190508160005260206000209050919050565b60006020601f8301049050919050565b600082821b905092915050565b60006008830261194f7fffffffffffffffffffffffffffffffffffffffffffffffffffffffffffffffff82611912565b6119598683611912565b95508019841693508086168417925050509392505050565b6000819050919050565b600061199661199161198c84610ffd565b611971565b610ffd565b9050919050565b6000819050919050565b6119b08361197b565b6119c46119bc8261199d565b84845461191f565b825550505050565b600090565b6119d96119cc565b6119e48184846119a7565b505050565b5b81811015611a08576119fd6000826119d1565b6001810190506119ea565b5050565b601f821115611a4d57611a1e816118ed565b611a2784611902565b81016020851015611a36578190505b611a4a611a4285611902565b8301826119e9565b50505b505050565b600082821c905092915050565b6000611a7060001984600802611a52565b1980831691505092915050565b6000611a898383611a5f565b9150826002028217905092915050565b611aa2826112c0565b67ffffffffffffffff811115611abb57611aba610ed2565b5b611ac582546118bc565b611ad0828285611a0c565b600060209050601f831160018114611b035760008415611af1578287015190505b611afb8582611a7d565b865550611b63565b601f198416611b11866118ed565b60005b82811015611b3957848901518255600182019150602085019450602081019050611b14565b86831015611b565784890151611b52601f891682611a5f565b8355505b6001600288020188555050505b505050505050565b7f4e487b7100000000000000000000000000000000000000000000000000000000600052601160045260246000fd5b6000611ba582610ffd565b91507fffffffffffffffffffffffffffffffffffffffffffffffffffffffffffffffff8203611bd757611bd6611b6b565b5b600182019050919050565b7f4e487b7100000000000000000000000000000000000000000000000000000000600052603260045260246000fdfea2646970667358221220a462c858ea84717efa4d9a6fc0481dde2e21573520a1516eef60bb01b53bfa4364736f6c63430008130033",
  "linkReferences": {},
  "deployedLinkReferences": {}
}