{
  "_format": "hh-sol-artifact-1",
  "contractName": "CropInfo",
  "sourceName": "contracts/CropInfo.sol",
  "abi": [
    {
      "inputs": [
        {
          "internalType": "string",
          "name": "_cropType",
          "type": "string"
        },
        {
          "internalType": "uint256",
          "name": "_plantingDate",
          "type": "uint256"
        },
        {
          "internalType": "uint256",
          "name": "_harvestDate",
          "type": "uint256"
        },
        {
          "internalType": "string[]",
          "name": "_fertilizers",
          "type": "string[]"
        },
        {
          "internalType": "string[]",
          "name": "_pesticides",
          "type": "string[]"
        }
      ],
      "name": "addCropInfo",
      "outputs": [],
      "stateMutability": "nonpayable",
      "type": "function"
    },
    {
      "inputs": [],
      "name": "cropCount",
      "outputs": [
        {
          "internalType": "uint256",
          "name": "",
          "type": "uint256"
        }
      ],
      "stateMutability": "view",
      "type": "function"
    },
    {
      "inputs": [],
      "name": "getAllCropsInfo",
      "outputs": [
        {
          "components": [
            {
              "internalType": "uint256",
              "name": "cropId",
              "type": "uint256"
            },
            {
              "internalType": "string",
              "name": "cropType",
              "type": "string"
            },
            {
              "internalType": "uint256",
              "name": "plantingDate",
              "type": "uint256"
            },
            {
              "internalType": "uint256",
              "name": "harvestDate",
              "type": "uint256"
            },
            {
              "internalType": "string[]",
              "name": "fertilizers",
              "type": "string[]"
            },
            {
              "internalType": "string[]",
              "name": "pesticides",
              "type": "string[]"
            }
          ],
          "internalType": "struct CropInfo.Crop[]",
          "name": "",
          "type": "tuple[]"
        }
      ],
      "stateMutability": "view",
      "type": "function"
    },
    {
      "inputs": [
        {
          "internalType": "uint256",
          "name": "_cropId",
          "type": "uint256"
        }
      ],
      "name": "getCropInfo",
      "outputs": [
        {
          "components": [
            {
              "internalType": "uint256",
              "name": "cropId",
              "type": "uint256"
            },
            {
              "internalType": "string",
              "name": "cropType",
              "type": "string"
            },
            {
              "internalType": "uint256",
              "name": "plantingDate",
              "type": "uint256"
            },
            {
              "internalType": "uint256",
              "name": "harvestDate",
              "type": "uint256"
            },
            {
              "internalType": "string[]",
              "name": "fertilizers",
              "type": "string[]"
            },
            {
              "internalType": "string[]",
              "name": "pesticides",
              "type": "string[]"
            }
          ],
          "internalType": "struct CropInfo.Crop",
          "name": "",
          "type": "tuple"
        }
      ],
      "stateMutability": "view",
      "type": "function"
    },
    {
      "inputs": [],
      "name": "getNumberOfCrop",
      "outputs": [
        {
          "internalType": "uint256",
          "name": "",
          "type": "uint256"
        }
      ],
      "stateMutability": "view",
      "type": "function"
    }
  ],
  "bytecode": "0x608060405234801561001057600080fd5b50611344806100206000396000f3fe608060405234801561001057600080fd5b50600436106100575760003560e01c8063111479fb1461005c5780631f582b591461007a5780632896fa16146100985780634a147e34146100c8578063dfd55a2c146100e4575b600080fd5b610064610102565b6040516100719190610883565b60405180910390f35b61008261010c565b60405161008f9190610b58565b60405180910390f35b6100b260048036038101906100ad9190610bba565b6103cd565b6040516100bf9190610c7e565b60405180910390f35b6100e260048036038101906100dd9190610ebb565b61066b565b005b6100ec610754565b6040516100f99190610883565b60405180910390f35b6000600154905090565b60606000805480602002602001604051908101604052809291908181526020016000905b828210156103c457838290600052602060002090600602016040518060c00160405290816000820154815260200160018201805461016d90610fb9565b80601f016020809104026020016040519081016040528092919081815260200182805461019990610fb9565b80156101e65780601f106101bb576101008083540402835291602001916101e6565b820191906000526020600020905b8154815290600101906020018083116101c957829003601f168201915b50505050508152602001600282015481526020016003820154815260200160048201805480602002602001604051908101604052809291908181526020016000905b828210156102d457838290600052602060002001805461024790610fb9565b80601f016020809104026020016040519081016040528092919081815260200182805461027390610fb9565b80156102c05780601f10610295576101008083540402835291602001916102c0565b820191906000526020600020905b8154815290600101906020018083116102a357829003601f168201915b505050505081526020019060010190610228565b50505050815260200160058201805480602002602001604051908101604052809291908181526020016000905b828210156103ad57838290600052602060002001805461032090610fb9565b80601f016020809104026020016040519081016040528092919081815260200182805461034c90610fb9565b80156103995780601f1061036e57610100808354040283529160200191610399565b820191906000526020600020905b81548152906001019060200180831161037c57829003601f168201915b505050505081526020019060010190610301565b505050508152505081526020019060010190610130565b50505050905090565b6103d561075a565b600082815481106103e9576103e8610fea565b5b90600052602060002090600602016040518060c00160405290816000820154815260200160018201805461041c90610fb9565b80601f016020809104026020016040519081016040528092919081815260200182805461044890610fb9565b80156104955780601f1061046a57610100808354040283529160200191610495565b820191906000526020600020905b81548152906001019060200180831161047857829003601f168201915b50505050508152602001600282015481526020016003820154815260200160048201805480602002602001604051908101604052809291908181526020016000905b828210156105835783829060005260206000200180546104f690610fb9565b80601f016020809104026020016040519081016040528092919081815260200182805461052290610fb9565b801561056f5780601f106105445761010080835404028352916020019161056f565b820191906000526020600020905b81548152906001019060200180831161055257829003601f168201915b5050505050815260200190600101906104d7565b50505050815260200160058201805480602002602001604051908101604052809291908181526020016000905b8282101561065c5783829060005260206000200180546105cf90610fb9565b80601f01602080910402602001604051908101604052809291908181526020018280546105fb90610fb9565b80156106485780601f1061061d57610100808354040283529160200191610648565b820191906000526020600020905b81548152906001019060200180831161062b57829003601f168201915b5050505050815260200190600101906105b0565b50505050815250509050919050565b6001600081548092919061067e90611048565b919050555060006040518060c0016040528060015481526020018781526020018681526020018581526020018481526020018381525090806001815401808255809150506001900390600052602060002090600602016000909190919091506000820151816000015560208201518160010190816106fc919061123c565b506040820151816002015560608201518160030155608082015181600401908051906020019061072d929190610790565b5060a082015181600501908051906020019061074a929190610790565b5050505050505050565b60015481565b6040518060c001604052806000815260200160608152602001600081526020016000815260200160608152602001606081525090565b8280548282559060005260206000209081019282156107d8579160200282015b828111156107d75782518290816107c7919061123c565b50916020019190600101906107b0565b5b5090506107e591906107e9565b5090565b5b808211156108095760008181610800919061080d565b506001016107ea565b5090565b50805461081990610fb9565b6000825580601f1061082b575061084a565b601f016020900490600052602060002090810190610849919061084d565b5b50565b5b8082111561086657600081600090555060010161084e565b5090565b6000819050919050565b61087d8161086a565b82525050565b60006020820190506108986000830184610874565b92915050565b600081519050919050565b600082825260208201905092915050565b6000819050602082019050919050565b6108d38161086a565b82525050565b600081519050919050565b600082825260208201905092915050565b60005b838110156109135780820151818401526020810190506108f8565b60008484015250505050565b6000601f19601f8301169050919050565b600061093b826108d9565b61094581856108e4565b93506109558185602086016108f5565b61095e8161091f565b840191505092915050565b600081519050919050565b600082825260208201905092915050565b6000819050602082019050919050565b60006109a18383610930565b905092915050565b6000602082019050919050565b60006109c182610969565b6109cb8185610974565b9350836020820285016109dd85610985565b8060005b85811015610a1957848403895281516109fa8582610995565b9450610a05836109a9565b925060208a019950506001810190506109e1565b50829750879550505050505092915050565b600060c083016000830151610a4360008601826108ca565b5060208301518482036020860152610a5b8282610930565b9150506040830151610a7060408601826108ca565b506060830151610a8360608601826108ca565b5060808301518482036080860152610a9b82826109b6565b91505060a083015184820360a0860152610ab582826109b6565b9150508091505092915050565b6000610ace8383610a2b565b905092915050565b6000602082019050919050565b6000610aee8261089e565b610af881856108a9565b935083602082028501610b0a856108ba565b8060005b85811015610b465784840389528151610b278582610ac2565b9450610b3283610ad6565b925060208a01995050600181019050610b0e565b50829750879550505050505092915050565b60006020820190508181036000830152610b728184610ae3565b905092915050565b6000604051905090565b600080fd5b600080fd5b610b978161086a565b8114610ba257600080fd5b50565b600081359050610bb481610b8e565b92915050565b600060208284031215610bd057610bcf610b84565b5b6000610bde84828501610ba5565b91505092915050565b600060c083016000830151610bff60008601826108ca565b5060208301518482036020860152610c178282610930565b9150506040830151610c2c60408601826108ca565b506060830151610c3f60608601826108ca565b5060808301518482036080860152610c5782826109b6565b91505060a083015184820360a0860152610c7182826109b6565b9150508091505092915050565b60006020820190508181036000830152610c988184610be7565b905092915050565b600080fd5b600080fd5b7f4e487b7100000000000000000000000000000000000000000000000000000000600052604160045260246000fd5b610ce28261091f565b810181811067ffffffffffffffff82111715610d0157610d00610caa565b5b80604052505050565b6000610d14610b7a565b9050610d208282610cd9565b919050565b600067ffffffffffffffff821115610d4057610d3f610caa565b5b610d498261091f565b9050602081019050919050565b82818337600083830152505050565b6000610d78610d7384610d25565b610d0a565b905082815260208101848484011115610d9457610d93610ca5565b5b610d9f848285610d56565b509392505050565b600082601f830112610dbc57610dbb610ca0565b5b8135610dcc848260208601610d65565b91505092915050565b600067ffffffffffffffff821115610df057610def610caa565b5b602082029050602081019050919050565b600080fd5b6000610e19610e1484610dd5565b610d0a565b90508083825260208201905060208402830185811115610e3c57610e3b610e01565b5b835b81811015610e8357803567ffffffffffffffff811115610e6157610e60610ca0565b5b808601610e6e8982610da7565b85526020850194505050602081019050610e3e565b5050509392505050565b600082601f830112610ea257610ea1610ca0565b5b8135610eb2848260208601610e06565b91505092915050565b600080600080600060a08688031215610ed757610ed6610b84565b5b600086013567ffffffffffffffff811115610ef557610ef4610b89565b5b610f0188828901610da7565b9550506020610f1288828901610ba5565b9450506040610f2388828901610ba5565b935050606086013567ffffffffffffffff811115610f4457610f43610b89565b5b610f5088828901610e8d565b925050608086013567ffffffffffffffff811115610f7157610f70610b89565b5b610f7d88828901610e8d565b9150509295509295909350565b7f4e487b7100000000000000000000000000000000000000000000000000000000600052602260045260246000fd5b60006002820490506001821680610fd157607f821691505b602082108103610fe457610fe3610f8a565b5b50919050565b7f4e487b7100000000000000000000000000000000000000000000000000000000600052603260045260246000fd5b7f4e487b7100000000000000000000000000000000000000000000000000000000600052601160045260246000fd5b60006110538261086a565b91507fffffffffffffffffffffffffffffffffffffffffffffffffffffffffffffffff820361108557611084611019565b5b600182019050919050565b60008190508160005260206000209050919050565b60006020601f8301049050919050565b600082821b905092915050565b6000600883026110f27fffffffffffffffffffffffffffffffffffffffffffffffffffffffffffffffff826110b5565b6110fc86836110b5565b95508019841693508086168417925050509392505050565b6000819050919050565b600061113961113461112f8461086a565b611114565b61086a565b9050919050565b6000819050919050565b6111538361111e565b61116761115f82611140565b8484546110c2565b825550505050565b600090565b61117c61116f565b61118781848461114a565b505050565b5b818110156111ab576111a0600082611174565b60018101905061118d565b5050565b601f8211156111f0576111c181611090565b6111ca846110a5565b810160208510156111d9578190505b6111ed6111e5856110a5565b83018261118c565b50505b505050565b600082821c905092915050565b6000611213600019846008026111f5565b1980831691505092915050565b600061122c8383611202565b9150826002028217905092915050565b611245826108d9565b67ffffffffffffffff81111561125e5761125d610caa565b5b6112688254610fb9565b6112738282856111af565b600060209050601f8311600181146112a65760008415611294578287015190505b61129e8582611220565b865550611306565b601f1984166112b486611090565b60005b828110156112dc578489015182556001820191506020850194506020810190506112b7565b868310156112f957848901516112f5601f891682611202565b8355505b6001600288020188555050505b50505050505056fea264697066735822122078815a49750be2fda70c1f3829916c54f589b59ff67a59a9a8b40bd345009f6a64736f6c63430008130033",
  "linkReferences": {},
  "deployedLinkReferences": {}
}