{
    "_format": "hh-sol-artifact-1",
    "contractName": "SensorDataContract",
    "sourceName": "contracts/SensorData.sol",
    "abi": [
        {
            "inputs": [
                {
                    "components": [
                        {
                            "internalType": "string",
                            "name": "createAt",
                            "type": "string"
                        },
                        {
                            "internalType": "string",
                            "name": "sensorType",
                            "type": "string"
                        },
                        {
                            "internalType": "uint256",
                            "name": "value",
                            "type": "uint256"
                        }
                    ],
                    "internalType": "struct SensorDataContract.SensorData[]",
                    "name": "_sensorsData",
                    "type": "tuple[]"
                }
            ],
            "name": "addSensorsData",
            "outputs": [],
            "stateMutability": "nonpayable",
            "type": "function"
        },
        {
            "inputs": [],
            "name": "getAllSensorsData",
            "outputs": [
                {
                    "components": [
                        {
                            "internalType": "string",
                            "name": "createAt",
                            "type": "string"
                        },
                        {
                            "internalType": "string",
                            "name": "sensorType",
                            "type": "string"
                        },
                        {
                            "internalType": "uint256",
                            "name": "value",
                            "type": "uint256"
                        }
                    ],
                    "internalType": "struct SensorDataContract.SensorData[]",
                    "name": "",
                    "type": "tuple[]"
                }
            ],
            "stateMutability": "view",
            "type": "function"
        },
        {
            "inputs": [],
            "name": "getNumberOfSensorsData",
            "outputs": [
                {
                    "internalType": "uint256",
                    "name": "",
                    "type": "uint256"
                }
            ],
            "stateMutability": "view",
            "type": "function"
        }
    ],
    "bytecode": "0x608060405234801561001057600080fd5b50610c6b806100206000396000f3fe608060405234801561001057600080fd5b50600436106100415760003560e01c80631d31b42814610046578063899f802814610064578063e86b56ab14610080575b600080fd5b61004e61009e565b60405161005b919061051b565b60405180910390f35b61007e6004803603810190610079919061083e565b61028b565b005b61008861032e565b6040516100959190610896565b60405180910390f35b6060600060015467ffffffffffffffff8111156100be576100bd610556565b5b6040519080825280602002602001820160405280156100f757816020015b6100e4610338565b8152602001906001900390816100dc5790505b50905060005b60015481101561028357600080828152602001908152602001600020604051806060016040529081600082018054610134906108e0565b80601f0160208091040260200160405190810160405280929190818152602001828054610160906108e0565b80156101ad5780601f10610182576101008083540402835291602001916101ad565b820191906000526020600020905b81548152906001019060200180831161019057829003601f168201915b505050505081526020016001820180546101c6906108e0565b80601f01602080910402602001604051908101604052809291908181526020018280546101f2906108e0565b801561023f5780601f106102145761010080835404028352916020019161023f565b820191906000526020600020905b81548152906001019060200180831161022257829003601f168201915b5050505050815260200160028201548152505082828151811061026557610264610911565b5b6020026020010181905250808061027b9061096f565b9150506100fd565b508091505090565b60005b815181101561032a578181815181106102aa576102a9610911565b5b6020026020010151600080600154815260200190815260200160002060008201518160000190816102db9190610b63565b5060208201518160010190816102f19190610b63565b5060408201518160020155905050600160008154809291906103129061096f565b919050555080806103229061096f565b91505061028e565b5050565b6000600154905090565b60405180606001604052806060815260200160608152602001600081525090565b600081519050919050565b600082825260208201905092915050565b6000819050602082019050919050565b600081519050919050565b600082825260208201905092915050565b60005b838110156103bf5780820151818401526020810190506103a4565b60008484015250505050565b6000601f19601f8301169050919050565b60006103e782610385565b6103f18185610390565b93506104018185602086016103a1565b61040a816103cb565b840191505092915050565b6000819050919050565b61042881610415565b82525050565b6000606083016000830151848203600086015261044b82826103dc565b9150506020830151848203602086015261046582826103dc565b915050604083015161047a604086018261041f565b508091505092915050565b6000610491838361042e565b905092915050565b6000602082019050919050565b60006104b182610359565b6104bb8185610364565b9350836020820285016104cd85610375565b8060005b8581101561050957848403895281516104ea8582610485565b94506104f583610499565b925060208a019950506001810190506104d1565b50829750879550505050505092915050565b6000602082019050818103600083015261053581846104a6565b905092915050565b6000604051905090565b600080fd5b600080fd5b600080fd5b7f4e487b7100000000000000000000000000000000000000000000000000000000600052604160045260246000fd5b61058e826103cb565b810181811067ffffffffffffffff821117156105ad576105ac610556565b5b80604052505050565b60006105c061053d565b90506105cc8282610585565b919050565b600067ffffffffffffffff8211156105ec576105eb610556565b5b602082029050602081019050919050565b600080fd5b600080fd5b600080fd5b600080fd5b600067ffffffffffffffff82111561062c5761062b610556565b5b610635826103cb565b9050602081019050919050565b82818337600083830152505050565b600061066461065f84610611565b6105b6565b9050828152602081018484840111156106805761067f61060c565b5b61068b848285610642565b509392505050565b600082601f8301126106a8576106a7610551565b5b81356106b8848260208601610651565b91505092915050565b6106ca81610415565b81146106d557600080fd5b50565b6000813590506106e7816106c1565b92915050565b60006060828403121561070357610702610602565b5b61070d60606105b6565b9050600082013567ffffffffffffffff81111561072d5761072c610607565b5b61073984828501610693565b600083015250602082013567ffffffffffffffff81111561075d5761075c610607565b5b61076984828501610693565b602083015250604061077d848285016106d8565b60408301525092915050565b600061079c610797846105d1565b6105b6565b905080838252602082019050602084028301858111156107bf576107be6105fd565b5b835b8181101561080657803567ffffffffffffffff8111156107e4576107e3610551565b5b8086016107f189826106ed565b855260208501945050506020810190506107c1565b5050509392505050565b600082601f83011261082557610824610551565b5b8135610835848260208601610789565b91505092915050565b60006020828403121561085457610853610547565b5b600082013567ffffffffffffffff8111156108725761087161054c565b5b61087e84828501610810565b91505092915050565b61089081610415565b82525050565b60006020820190506108ab6000830184610887565b92915050565b7f4e487b7100000000000000000000000000000000000000000000000000000000600052602260045260246000fd5b600060028204905060018216806108f857607f821691505b60208210810361090b5761090a6108b1565b5b50919050565b7f4e487b7100000000000000000000000000000000000000000000000000000000600052603260045260246000fd5b7f4e487b7100000000000000000000000000000000000000000000000000000000600052601160045260246000fd5b600061097a82610415565b91507fffffffffffffffffffffffffffffffffffffffffffffffffffffffffffffffff82036109ac576109ab610940565b5b600182019050919050565b60008190508160005260206000209050919050565b60006020601f8301049050919050565b600082821b905092915050565b600060088302610a197fffffffffffffffffffffffffffffffffffffffffffffffffffffffffffffffff826109dc565b610a2386836109dc565b95508019841693508086168417925050509392505050565b6000819050919050565b6000610a60610a5b610a5684610415565b610a3b565b610415565b9050919050565b6000819050919050565b610a7a83610a45565b610a8e610a8682610a67565b8484546109e9565b825550505050565b600090565b610aa3610a96565b610aae818484610a71565b505050565b5b81811015610ad257610ac7600082610a9b565b600181019050610ab4565b5050565b601f821115610b1757610ae8816109b7565b610af1846109cc565b81016020851015610b00578190505b610b14610b0c856109cc565b830182610ab3565b50505b505050565b600082821c905092915050565b6000610b3a60001984600802610b1c565b1980831691505092915050565b6000610b538383610b29565b9150826002028217905092915050565b610b6c82610385565b67ffffffffffffffff811115610b8557610b84610556565b5b610b8f82546108e0565b610b9a828285610ad6565b600060209050601f831160018114610bcd5760008415610bbb578287015190505b610bc58582610b47565b865550610c2d565b601f198416610bdb866109b7565b60005b82811015610c0357848901518255600182019150602085019450602081019050610bde565b86831015610c205784890151610c1c601f891682610b29565b8355505b6001600288020188555050505b50505050505056fea2646970667358221220bf31c1879083ae515f41f83b83ab085acc2c4e7efa39278e5c21873c59359cf664736f6c63430008130033",
    "linkReferences": {},
    "deployedLinkReferences": {}
}