{
  "_format": "hh-sol-artifact-1",
  "contractName": "Transactions",
  "sourceName": "contracts/Transaction.sol",
  "abi": [
    {
      "anonymous": false,
      "inputs": [
        {
          "indexed": false,
          "internalType": "address",
          "name": "from",
          "type": "address"
        },
        {
          "indexed": false,
          "internalType": "address",
          "name": "receiver",
          "type": "address"
        },
        {
          "indexed": false,
          "internalType": "uint256",
          "name": "amount",
          "type": "uint256"
        },
        {
          "indexed": false,
          "internalType": "string",
          "name": "message",
          "type": "string"
        },
        {
          "indexed": false,
          "internalType": "uint256",
          "name": "timestamp",
          "type": "uint256"
        }
      ],
      "name": "Transfer",
      "type": "event"
    },
    {
      "inputs": [
        {
          "internalType": "address payable",
          "name": "receiver",
          "type": "address"
        },
        {
          "internalType": "uint256",
          "name": "amount",
          "type": "uint256"
        },
        {
          "internalType": "string",
          "name": "message",
          "type": "string"
        }
      ],
      "name": "addToBlockChain",
      "outputs": [],
      "stateMutability": "nonpayable",
      "type": "function"
    },
    {
      "inputs": [],
      "name": "getAllTransactions",
      "outputs": [
        {
          "components": [
            {
              "internalType": "address",
              "name": "sender",
              "type": "address"
            },
            {
              "internalType": "address",
              "name": "receiver",
              "type": "address"
            },
            {
              "internalType": "uint256",
              "name": "amount",
              "type": "uint256"
            },
            {
              "internalType": "string",
              "name": "message",
              "type": "string"
            },
            {
              "internalType": "uint256",
              "name": "timestamp",
              "type": "uint256"
            }
          ],
          "internalType": "struct Transactions.TransferStruct[]",
          "name": "",
          "type": "tuple[]"
        }
      ],
      "stateMutability": "view",
      "type": "function"
    },
    {
      "inputs": [],
      "name": "getNumberOfTransactions",
      "outputs": [
        {
          "internalType": "uint256",
          "name": "",
          "type": "uint256"
        }
      ],
      "stateMutability": "view",
      "type": "function"
    },
    {
      "inputs": [
        {
          "internalType": "uint256",
          "name": "",
          "type": "uint256"
        }
      ],
      "name": "transactions",
      "outputs": [
        {
          "internalType": "address",
          "name": "sender",
          "type": "address"
        },
        {
          "internalType": "address",
          "name": "receiver",
          "type": "address"
        },
        {
          "internalType": "uint256",
          "name": "amount",
          "type": "uint256"
        },
        {
          "internalType": "string",
          "name": "message",
          "type": "string"
        },
        {
          "internalType": "uint256",
          "name": "timestamp",
          "type": "uint256"
        }
      ],
      "stateMutability": "view",
      "type": "function"
    }
  ],
  "bytecode": "0x608060405234801561001057600080fd5b50610fa6806100206000396000f3fe608060405234801561001057600080fd5b506004361061004c5760003560e01c806324ba506d1461005157806327506f531461006f5780639ace38c21461008d578063d5594fb8146100c1575b600080fd5b6100596100dd565b60405161006691906105e6565b60405180910390f35b6100776100e6565b6040516100849190610819565b60405180910390f35b6100a760048036038101906100a2919061087b565b6102f7565b6040516100b8959493929190610901565b60405180910390f35b6100db60048036038101906100d69190610ace565b6103f5565b005b60008054905090565b60606000805467ffffffffffffffff811115610105576101046109a3565b5b60405190808252806020026020018201604052801561013e57816020015b61012b610572565b8152602001906001900390816101235790505b50905060005b6000548110156102ef57600160008281526020019081526020016000206040518060a00160405290816000820160009054906101000a900473ffffffffffffffffffffffffffffffffffffffff1673ffffffffffffffffffffffffffffffffffffffff1673ffffffffffffffffffffffffffffffffffffffff1681526020016001820160009054906101000a900473ffffffffffffffffffffffffffffffffffffffff1673ffffffffffffffffffffffffffffffffffffffff1673ffffffffffffffffffffffffffffffffffffffff1681526020016002820154815260200160038201805461023290610b6c565b80601f016020809104026020016040519081016040528092919081815260200182805461025e90610b6c565b80156102ab5780601f10610280576101008083540402835291602001916102ab565b820191906000526020600020905b81548152906001019060200180831161028e57829003601f168201915b505050505081526020016004820154815250508282815181106102d1576102d0610b9d565b5b602002602001018190525080806102e790610bfb565b915050610144565b508091505090565b60016020528060005260406000206000915090508060000160009054906101000a900473ffffffffffffffffffffffffffffffffffffffff16908060010160009054906101000a900473ffffffffffffffffffffffffffffffffffffffff169080600201549080600301805461036c90610b6c565b80601f016020809104026020016040519081016040528092919081815260200182805461039890610b6c565b80156103e55780601f106103ba576101008083540402835291602001916103e5565b820191906000526020600020905b8154815290600101906020018083116103c857829003601f168201915b5050505050908060040154905085565b6040518060a001604052803373ffffffffffffffffffffffffffffffffffffffff1681526020018473ffffffffffffffffffffffffffffffffffffffff16815260200183815260200182815260200142815250600160008054815260200190815260200160002060008201518160000160006101000a81548173ffffffffffffffffffffffffffffffffffffffff021916908373ffffffffffffffffffffffffffffffffffffffff16021790555060208201518160010160006101000a81548173ffffffffffffffffffffffffffffffffffffffff021916908373ffffffffffffffffffffffffffffffffffffffff1602179055506040820151816002015560608201518160030190816105099190610def565b506080820151816004015590505060008081548092919061052990610bfb565b91905055507fc4b32d7ff75a51e487f3cbb5d3202f2efecca1f4c2b987e0039c1d3220b48a833384848442604051610565959493929190610f16565b60405180910390a1505050565b6040518060a00160405280600073ffffffffffffffffffffffffffffffffffffffff168152602001600073ffffffffffffffffffffffffffffffffffffffff1681526020016000815260200160608152602001600081525090565b6000819050919050565b6105e0816105cd565b82525050565b60006020820190506105fb60008301846105d7565b92915050565b600081519050919050565b600082825260208201905092915050565b6000819050602082019050919050565b600073ffffffffffffffffffffffffffffffffffffffff82169050919050565b60006106588261062d565b9050919050565b6106688161064d565b82525050565b610677816105cd565b82525050565b600081519050919050565b600082825260208201905092915050565b60005b838110156106b757808201518184015260208101905061069c565b60008484015250505050565b6000601f19601f8301169050919050565b60006106df8261067d565b6106e98185610688565b93506106f9818560208601610699565b610702816106c3565b840191505092915050565b600060a083016000830151610725600086018261065f565b506020830151610738602086018261065f565b50604083015161074b604086018261066e565b506060830151848203606086015261076382826106d4565b9150506080830151610778608086018261066e565b508091505092915050565b600061078f838361070d565b905092915050565b6000602082019050919050565b60006107af82610601565b6107b9818561060c565b9350836020820285016107cb8561061d565b8060005b8581101561080757848403895281516107e88582610783565b94506107f383610797565b925060208a019950506001810190506107cf565b50829750879550505050505092915050565b6000602082019050818103600083015261083381846107a4565b905092915050565b6000604051905090565b600080fd5b600080fd5b610858816105cd565b811461086357600080fd5b50565b6000813590506108758161084f565b92915050565b60006020828403121561089157610890610845565b5b600061089f84828501610866565b91505092915050565b6108b18161064d565b82525050565b600082825260208201905092915050565b60006108d38261067d565b6108dd81856108b7565b93506108ed818560208601610699565b6108f6816106c3565b840191505092915050565b600060a08201905061091660008301886108a8565b61092360208301876108a8565b61093060408301866105d7565b818103606083015261094281856108c8565b905061095160808301846105d7565b9695505050505050565b60006109668261062d565b9050919050565b6109768161095b565b811461098157600080fd5b50565b6000813590506109938161096d565b92915050565b600080fd5b600080fd5b7f4e487b7100000000000000000000000000000000000000000000000000000000600052604160045260246000fd5b6109db826106c3565b810181811067ffffffffffffffff821117156109fa576109f96109a3565b5b80604052505050565b6000610a0d61083b565b9050610a1982826109d2565b919050565b600067ffffffffffffffff821115610a3957610a386109a3565b5b610a42826106c3565b9050602081019050919050565b82818337600083830152505050565b6000610a71610a6c84610a1e565b610a03565b905082815260208101848484011115610a8d57610a8c61099e565b5b610a98848285610a4f565b509392505050565b600082601f830112610ab557610ab4610999565b5b8135610ac5848260208601610a5e565b91505092915050565b600080600060608486031215610ae757610ae6610845565b5b6000610af586828701610984565b9350506020610b0686828701610866565b925050604084013567ffffffffffffffff811115610b2757610b2661084a565b5b610b3386828701610aa0565b9150509250925092565b7f4e487b7100000000000000000000000000000000000000000000000000000000600052602260045260246000fd5b60006002820490506001821680610b8457607f821691505b602082108103610b9757610b96610b3d565b5b50919050565b7f4e487b7100000000000000000000000000000000000000000000000000000000600052603260045260246000fd5b7f4e487b7100000000000000000000000000000000000000000000000000000000600052601160045260246000fd5b6000610c06826105cd565b91507fffffffffffffffffffffffffffffffffffffffffffffffffffffffffffffffff8203610c3857610c37610bcc565b5b600182019050919050565b60008190508160005260206000209050919050565b60006020601f8301049050919050565b600082821b905092915050565b600060088302610ca57fffffffffffffffffffffffffffffffffffffffffffffffffffffffffffffffff82610c68565b610caf8683610c68565b95508019841693508086168417925050509392505050565b6000819050919050565b6000610cec610ce7610ce2846105cd565b610cc7565b6105cd565b9050919050565b6000819050919050565b610d0683610cd1565b610d1a610d1282610cf3565b848454610c75565b825550505050565b600090565b610d2f610d22565b610d3a818484610cfd565b505050565b5b81811015610d5e57610d53600082610d27565b600181019050610d40565b5050565b601f821115610da357610d7481610c43565b610d7d84610c58565b81016020851015610d8c578190505b610da0610d9885610c58565b830182610d3f565b50505b505050565b600082821c905092915050565b6000610dc660001984600802610da8565b1980831691505092915050565b6000610ddf8383610db5565b9150826002028217905092915050565b610df88261067d565b67ffffffffffffffff811115610e1157610e106109a3565b5b610e1b8254610b6c565b610e26828285610d62565b600060209050601f831160018114610e595760008415610e47578287015190505b610e518582610dd3565b865550610eb9565b601f198416610e6786610c43565b60005b82811015610e8f57848901518255600182019150602085019450602081019050610e6a565b86831015610eac5784890151610ea8601f891682610db5565b8355505b6001600288020188555050505b505050505050565b6000610edc610ed7610ed28461062d565b610cc7565b61062d565b9050919050565b6000610eee82610ec1565b9050919050565b6000610f0082610ee3565b9050919050565b610f1081610ef5565b82525050565b600060a082019050610f2b60008301886108a8565b610f386020830187610f07565b610f4560408301866105d7565b8181036060830152610f5781856108c8565b9050610f6660808301846105d7565b969550505050505056fea2646970667358221220c10f9c8db11505750bc4a3990f082fab44079359cea23daa1662c41e9338c54b64736f6c63430008130033",
  "linkReferences": {},
  "deployedLinkReferences": {}
}